S01D000073616D6432315F31326269745F6D756C74696164632E737265634C
S11300001822002075020000710200007102000035
S113001000000000000000000000000000000000DC
S11300200000000000000000000000007102000059
S113003000000000000000007102000071020000D6
S113004071020000710200007102000071020000E0
S113005071020000710200007102000071020000D0
S113006071020000710200007102000071020000C0
S113007071020000710200007102000071020000B0
S113008071020000710200007102000071020000A0
S11300907102000071020000710200007102000090
S11300A07102000071020000710200007102000080
S11300B00000000010B5064C2378002B07D1054B37
S11300C0002B02D0044800E000BF0123237010BDC0
S11300D0D40100200000000030650000084B10B57A
S11300E0002B03D00749084800E000BF0748036815
S11300F0002B00D110BD064B002BFBD09847F9E72D
S113010000000000D80100203065000030650000C8
S11301100000000070B5044D00212800034CA047E6
S113012001212800A04770BD10020020ED0400004A
S1130130F0B5D6464F4680B585B004000023C360B1
S1130140036103AA1380023300213548354DA847C3
S113015002285ED1022203A92000334B98470022D3
S1130160A35E324858433249324B9847324B984742
S11301706060022303AA012129482A4DA8470228C6
S11301804AD1A01C022203A9274B98470222A35E4E
S1130190264858432649274B9847274B98470190B0
S11301A0A06000236361A361002512E0224B9946FD
S11301B060699847214F0199B847214EB047606163
S11301C063689A46A069C8475146B847B047A061DA
S11301D001351C4B9D42E9DD164D1B496069A8475A
S11301E00600E0601849A069A84720611049300062
S11301F0A847164B9847164B98470022154B164DA7
S1130200A84720626162002005B00CBC91469A4662
S1130210F0BD01204042F7E701204042F4E7C04628
S11302201002002019050000C51400008813000006
S1130230FF0F0000E13E000099440000354100003A
S113024059440000FE030000FF030000955F000016
S1130250210E000000002440C153000010B5024BE1
S11302609847024B984710BD91040000010E00000E
S1130270FEE70000F8B5234A234B9A4209D0224BEB
S1130280204A03E011681960043304321F498B4289
S1130290F8D31F4B02E000221A6004331D4A934234
S11302A0F9D31D4AFF211D4B8B439360FD399023E5
S11302B05B001B4AD1501B4AD3780325AB4302246D
S11302C02343D370D3780C27BB4308263343D3701E
S11302D0154B987B30229043202210439873997BCE
S11302E0B943314399739A7BAA4322439A730F4AC1
S11302F0516880230B4353600D4B98470D4B98472F
S1130300FEE7C0463065000000000020D401002054
S1130310D40100201802002000ED00E000000000DD
S1130320007000410050004100480041004000417D
S11303307D140000C90C0000F0B5C026F60540236A
S11303407360144B144A9A62C02212069A624620C1
S1130350195C0125A94301242143C9B21954133856
S1130360195C0F27B9432143C9B219548021716024
S11303700A4999629A6247215A5CAA432243D2B23B
S11303805A541A5C38390A4010210A43D2B21A541A
S1130390F0BDC046004400414000004080000040E1
S11303A0044A116A80235B020B431362024A034B23
S11303B05A807047000400401E400000000C0040BA
S11303C010B5054B9847054B98470022044905484A
S11303D0054B984710BDC046A10300003903000037
S11303E00040004210020020B504000030B50F4B5D
S11303F05622995C0125A94301242143C9B2995489
S11304003B20195C473A914302221143C9B2195463
S113041057215A5CAA432243D2B25A541A5C48392F
S11304200A4020210A43D2B21A5430BD004400418C
S1130430044A136A20210B431362034A034B5A8074
S11304407047C0460004004017400000000C004004
S113045010B5054B9847002204490548054B9847B9
S1130460054B984710BDC0463104000000140042FB
S1130470040200204D070000ED03000010B50248FF
S1130480024B984710BDC04610E000E0C9050000CB
S113049010B5044B9847044B9847044B9847044BBA
S11304A0984710BDF1090000C10300005104000089
S11304B07D04000070B504000D0000280DD0002953
S11304C009D0012039220649064B9847290020000B
S11304D0054B984770BD0020F4E70020F2E7C046C2
S11304E0C4600000C50700005509000070B5040091
S11304F00D00431E9841C0B24E220449044B984754
S113050029002000034B9847002070BDC460000000
S1130510C50700008D090000F8B5CE46474680B5F2
S113052006000D009046994600281AD0002A1AD0D9
S11305304B46002B19D1002067221C491C4FB84799
S1130540340030001B4B98470100060048461A4B04
S1130550984748424841C0B269221449B847002725
S113056009E00020E8E70020E6E70120E4E7BF19FE
S1130570BFB2B94515D92000104B98472900200077
S11305800F4B98470028F9D0290020000D4B9847BD
S11305904346D855012EEAD97B1C000A4246D05462
S11305A0E5E738000CBC90469946F8BDC4600000ED
S11305B0C50700009B090000AD400000C109000010
S11305C0B7090000D509000010B5024B1860024BB2
S11305D0984710BDF00100207D0C000010B5044BBD
S11305E01C68044B984701002000034B984710BD3A
S11305F0F0010020E3090000890C000070B504003C
S11306000D00160000280ED000290AD00120342243
S11306100649074B98472368320029002000984771
S113062070BD0020F3E70020F1E7C046E060000061
S1130630C507000070B504000D00160000280ED098
S113064000290AD001203D220649074B98476368D8
S1130650320029002000984770BD0020F3E70020F5
S1130660F1E7C046E0600000C5070000F8B50500EA
S11306700E001700002823D0002923D0002A23D1FC
S11306800020F1221149124B98472C000834200015
S1130690104B98470028F8D00025715D20000E4BC0
S11306A0984720000B4B98470028FAD00135BD42EB
S11306B0F3D32000094B98470028FAD02800F8BD4E
S11306C00020DEE70020DCE70120DAE7F460000028
S11306D0C5070000F30B0000E30B0000FD0B000056
S11306E0F8B5CE46474680B5051E884691461FD0CC
S11306F000291FD0002A1FD10020862252000F4952
S11307000F4B984700262C00083420000D4B9847C7
S11307100028F8D043469F1920000B4B98473870A7
S113072001364E45EFD330000CBC90469946F8BDD7
S11307300020E2E70020E0E70120DEE7F4600000AB
S1130740C5070000090C0000EB0B000070B50400A5
S11307500D00002814D0002910D0012034220949AA
S1130760094B9847200008302900084B9847002877
S113077003D1074B6360074B236070BD0020EDE796
S11307800020EBE7F4600000C5070000A50B0000A3
S1130790E10600006D06000010B50400431E9841F8
S11307A0C0B253220449054B984720000830044B3B
S11307B09847002010BDC046F4600000C507000043
S11307C0D10B0000002800D100BE70470300064A88
S11307D01268002A04D0044A1068C31813607047D2
S11307E00249014A1160F6E7F401002018220020B2
S11307F001204042704780239B014B6000207047DA
S113080001207047002070470020704710B50B4B43
S1130810984702000020002806D07F2208490020C3
S1130820084B9847002010BDC3001B1A9900064BC3
S1130830CB5C9A42F7D00130C0B2ECE70908000063
S11308402C610000C50700001061000070B50400B1
S11308500D003A4BC01843425841C0B29422384963
S1130860384B9847384B1A68D2081202E023DB0051
S11308701A4036490B6849684901DB0E0B43FF21D6
S11308800B401A43637EDB09FCD123789B0704D514
S113089000232370637EDB09FCD101232370637E74
S11308A0DB09FCD12285EA00521B9100284B5B181E
S11308B09A786270DA78A2701A79E2701A7C2275DA
S11308C0DA8AA2841A8BE284997E2A22A154DB88D4
S11308D0A380637EDB09FCD1EB005B1B9A001C4BFD
S11308E09B18DB682361637EDB09FCD1EB005B1B97
S11308F09A00174B9B181B7A2372637EDB09FCD189
S1130900EB005B1B9A00124B9B185B8AA383637EEC
S1130910DB09FCD1EB005B1B9A000D4B9B189B8AF7
S11309202384637EDB09FCD1EB005D1BAA00084B2A
S11309309B185B782370002070BDC04600C0FFBDCB
S11309402C610000C5070000246080002060800046
S11309501061000070B505000C00431E9841C0B240
S1130960C5220649064B98472C602000054B984742
S113097001002000044B984770BDC0462C61000064
S1130980C50700000D0800004D0800000268137838
S113099002210B43DBB2137070470268537EDB09FC
S11309A0FCD19288120903331340032B01D0022097
S11309B070470120FCE70368187E01231840704744
S11309C00268137B02210B43DBB21373537EDB09F2
S11309D0FCD170470268537EDB09FCD1508B80B296
S11309E07047C8239B00584383001B185800704766
S11309F010B5064B5A685A60054B9847054B984703
S1130A00054B9847FF20054B984710BD0040004117
S1130A10410A0000150C0000590C0000210A0000D6
S1130A20C3070AD5054B802252009A6083225202E2
S1130A305A60024B5B78DB09FBD17047000C004025
S1130A40064B1A7AD2B21A725A7AD2B25A729A7A75
S1130A50D2B29A72DA7AD2B2DA72704700040040E3
S1130A60024B9C466044800AC0B2704700F8FFBD48
S1130A7010B50B4B984702000020002806D0094A05
S1130A8009490020094B9847002010BD83001B181A
S1130A909900074BCB5C9A42F7D00130C0B2ECE727
S1130AA0610A00003A02000094610000C5070000DA
S1130AB04461000070B50400384B9847E369DB07D4
S1130AC01DD483001B189A00354B9B185A681C23AD
S1130AD01A40E3699B07FCD123689B0709D5236867
S1130AE002218B432360E3699B07FCD1E3699B07E5
S1130AF0FCD4012313432360E3699B07FCD1E3691E
S1130B00DB07FCD483001B189A00254B9B185B68F9
S1130B102360E3699B07FCD183001B189A00204BD8
S1130B209B189B686360E3695B07FCD183001B1817
S1130B309A001B4B9B185B689A040BD4C022D20109
S1130B40134207D183001B189A00154B9B189B89ED
S1130B50A38115E083001B189A00114989188A891A
S1130B60A389D204D20C5B0B5B031343A3818B7B5D
S1130B7007221A40A3895203DB04DB0C1343A3812D
S1130B80074A83001D18A9000D005118C97BA173E1
S1130B905219127C3023E254002070BD710A000007
S1130BA04461000070B505000C00431E9841C0B2BA
S1130BB0B4220449044B98472C602000034B984707
S1130BC070BDC04694610000C5070000B50A00006E
S1130BD00268136802210B431360D3699B07FCD19D
S1130BE07047036889B2198570470368188DC0B2CD
S1130BF070470368187E01231840704703681B7E02
S1130C005B0801201840704703681B7E9B08012085
S1130C10184070470E4A116A090C136A9B0F9B0710
S1130C2009040C4801400B4302210B4313629369EE
S1130C300B439361137F1D310B401377044BDB6827
S1130C401B07FBD5024A136A80210B4313627047CA
S1130C50000800400000FF0F024A936902218B4301
S1130C609361704700080040024B034A5A60052212
S1130C701A60704710E000E0FFFFFF0010B5014B61
S1130C80984710BD690C0000080E0BE00B4B0C4894
S1130C9058609860094B1B68DB03FBD5094B9C46E5
S1130CA061441000421ED2B20028EFD1034B5960B8
S1130CB09960024B1B68DB03FBD5704710E000E032
S1130CC0FFFFFF00010000FF30B591B0124B9847C1
S1130CD0124B984706E01248124B9847FA204000FE
S1130CE0114B984704A8114B98470028F3D1059B52
S1130CF00393181C0E4B98470C9C0D9D0A210D4B19
S1130D009847009022002B000B4806498847FA2098
S1130D108000054B9847E1E75D02000015010000E3
S1130D20B8610000C91D0000DD05000031010000AC
S1130D3059440000E13E0000B061000010B50B0012
S1130D40002809D111001800054B9847002800DB42
S1130D5010BD01204042FBE701204042F8E7C046B5
S1130D60B90D000010B50B000138022809D8110094
S1130D701800054B9847002800DB10BD01204042B5
S1130D80FBE701204042F8E7DD0D000070B50600E6
S1130D90064D2B6898680021054CA0472B685868BD
S1130DA00021A047034B1E6070BDC0460400002014
S1130DB0FD1D0000F801002010B50400054B186863
S1130DC0002804D08AB22100034B984710BD0020AC
S1130DD0FCE7C046F80100203506000010B5040009
S1130DE0054B1868002804D08AB22100034B9847A9
S1130DF010BD0020FCE7C046F8010020FD050000FE
S1130E0010B5044C2000044B98472000034B98472E
S1130E1010BDC04604020020990700008D0D00009B
S1130E20F0B54746CE4680B58DB004000D0000F005
S1130E3083F83C4B06001B780F005BB298460133E5
S1130E4010D022002B002000290005F04FF8814625
S1130E50002807D1002200232000290003F04CF9C8
S1130E60002806D1300039000DB00CBC90469946DC
S1130E70F0BD2D4B0494059503934B460A934346CA
S1130E8006940795002B1AD1E022284B12060892EB
S1130E900993200000220023290003F01DF90028F3
S1130EA038D00223029302A800F0D8F8002817D003
S1130EB00A9B0193002B18D1089E099FD2E70022B8
S1130EC01B4B20000892099329000022002303F001
S1130ED003F900280FD0022302934346022BE2D1E8
S1130EE000F0C6FA22230360E2E700F0C1FA0A9B8D
S1130EF001930360E0E7012302934346022B0BD1E5
S1130F0000F0B6FA212303600A4800F0A9F808901B
S1130F100991CDE70123029302A800F09FF800286D
S1130F20F2D1EDE700000020C8610000FFFFEFC729
S1130F300000F0FF40610000F0B5CE46474680B5A2
S1130F403A4A83B004000D000B0091421CDC4A00B5
S1130F50520802435AD000295FDB0022344B04F0CC
S1130F602FFA0D000B003621324A04004942934205
S1130F700EDD22002B002000290003F0DDFA03B06F
S1130F800CBC90469946F0BD2A4A00219342F0DCFD
S1130F90294A1815944660444018C20F91461B0311
S1130FA01B0B4844984604F0F5FF4A46234B0600C1
S1130FB09B1A42461B051A430F002000110000F043
S1130FC055F81F4A04000D001E4B3000390004F090
S1130FD0F7F91D4A009001911C4B2000290004F0F0
S1130FE0EFF902000B000098019903F0A5FA184AE2
S1130FF004000D00174B3000390004F0E1F9020041
S11310000B002000290003F097FAB8E70022002320
S11310100020114903F0A0FDB1E702000B0004F029
S11310204FFC0022002303F097FDA8E7FFFF0F0009
S113103000005043FFFFEF7F01FCFFFFFF030000B0
S1131040362BF111F3FE593D0EE526157BCBDB3F24
S113105000609F501344D33F000050C300207047EA
S1131060002001497047C0460000F87FF0B5D6461D
S11310704F464646C0B5DA4A88B00B00914255DC6B
S11310804A005208024300D1EFE0002900DA79E176
S1131090D44B002204F094F93625D34C0B006D4256
S11310A0A34247DC1A15D14C1B031B0B9846A446DC
S11310B08024CF4B640343442340CE4C62445219F2
S11310C05C4045461B1599462543CA4B290091446B
S11310D0002204F0F5FB434602331B0306000F0015
S11310E01B0B0022022B2FDC002302F0F5FF00284B
S11310F000D1C1E04B46002B00D14CE1484604F03E
S113110049FFBD4ABD4B04000D0004F059F9BC4A27
S113111006000F00BB4B2000290004F051F9020027
S11311200B003000390003F007FA07E0AE4C00254D
S1131130A342B7DD02000B0003F0FEF908B01CBCAB
S113114090469946A246F0BD8023DB0503F0F4F9EE
S113115002000B003000390003F0FEFC0400484696
S11311600D0004F017FF2200029003912B002000D1
S113117029000494059504F023F904000D00A24B02
S1131180020043449A460B000094019504F018F9B8
S113119004000D009D4A9E4B04F012F99D4A9E4B9B
S11311A003F0CAF922002B0004F00AF99B4A9C4B75
S11311B003F0C2F922002B0004F002F9994A9A4B79
S11311C003F0BAF9009A019B04F0FAF8974A0090E8
S11311D00191974B2000290004F0F2F8954A964BB0
S11311E003F0AAF922002B0004F0EAF8934A944B86
S11311F003F0A2F922002B0004F0E2F80B00020035
S11312000098019903F098F90D0041468D4B0400B4
S11312105B1A51460B43002B54DD00228A4B3000ED
S1131220390004F0CDF832003B0004F0C9F84B4615
S11312300A00010000910192002B72D113002900D1
S11312400200200003F078F9049A059B04F0B8F832
S113125002000B000098019904F032FB02000B001D
S11312603000390004F02CFB68E700220023002042
S1131270764903F071FC61E7754A764B300039001A
S113128004F09EF802000B0000206F4904F018FBE4
S1131290320004000D003B003000390004F090F8E7
S11312A00B0002002900200004F08AF84B460400D9
S11312B00D00002B72D102000B003000390004F045
S11312C0FFFA3BE74B46002B00D1C5E00298039997
S11312D0494A4A4B04F074F82200009001912B0013
S11312E03000390004F0ECFA049A059B04F068F825
S11312F0434A04000D0002980399424B04F060F83D
S113130002000B002000290004F0DAFA32003B004E
S113131004F0D6FA02000B000098019904F0D0FA08
S11313200CE7354A354B0298039904F049F8009AC2
S1131330019B069007912000290003F0FDF8049A10
S1131340059B04F03DF82E4A04000D000298039911
S11313502C4B04F035F802000B002000290003F0A8
S1131360EBF802000B000098019904F0A9FA32008E
S11313703B0004F0A5FA02000B000698079904F05C
S11313809FFADBE602000B0004F09AFA0022002325
S113139003F0E2FBD2E600200021CFE6484604F049
S11313A0F9FD154A154B0090019104F009F8144A0F
S11313B00290039100980199124B04F001F8020085
S11313C00B002000290004F07BFA32003B0004F0FB
S11313D077FA02000B000298039904F071FAADE663
S11313E0FFFF0F0000005043FFFFEF7F01FCFFFFF2
S11313F0645F09000000F03F0000E0FE422EE63F7B
S1131400763C7935EF39EA3D86EBF9FF44523EDF0D
S113141012F1C23FDE03CB966446C73F5993229430
S11314202449D23F935555555555E53F9FC678D02D
S1131430099AC33FAF788E1DC571CC3F04FA9799C2
S11314409999D93F51B806000000E03F000050C30D
S1131450555555555555D53F22002B0030003900C0
S113146004F02EFA049A059B03F0AAFFF6E6C046A0
S1131470014B18687047C0460400002070B5002670
S11314800C4D0D4C641BA410A64209D1002605F096
S11314903FF80A4D0A4C641BA410A64205D170BD46
S11314A0B300EB5898470136EEE7B300EB58984782
S11314B00136F2E71C6500001C6500001C65000095
S11314C020650000002310B59A4200D110BDCC5C09
S11314D0C4540133F8E703008218934200D17047E3
S11314E019700133F9E7F0B58BB014001D1E129981
S11314F053DA802424061B191D0014002D230B70BD
S11315002023149E03229E43462E07D03300453BDE
S113151059424B411099013ACB18109309AB0493EB
S113152008AB0393139B00920293109B2200019338
S11315302B0000F071FE0700472E02D1119BDB0740
S113154024D5109BFB180793462E14D13B78302BDF
S11315500CD1002200232000290002F0BDFD002848
S113156004D10123109A9B1A139A1360139B079AB0
S11315701B68D3180793002200232000290002F0DF
S1131580ABFD302200280DD0079B09933800099B3E
S1131590159ADB1B13600BB0F0BD0023AFE7591C99
S11315A009911A70099B07999942F8D8EEE7F0B5AA
S11315B02B2385B007000C000270861C002901DA79
S11315C02D234C427B70092C23DD02ABDD1D6B1EE9
S11315D020000A21019302F069FD6B1E303119705D
S11315E020000A2102F07CFC040009280ADC023DE8
S11315F030342C7002AB07333000AB4204D8C01B2C
S113160005B0F0BD019DE2E72B780135337001365A
S1131610F0E73023E4183370B01C7470EFE7000077
S1131620F0B595B00C000A920B931A9D099001F045
S113163069FD036818000D9300F096FC00231293D3
S113164023680E900C930C99277E2B680722C905FA
S113165047D59B1893431A0008322A601A685B68BE
S1131660A264E3640122E56CA66C6B005B080F9333
S11316705242A74B30000F9904F038FC002800D0E8
S113168006E20122A24B524230000F9902F034FDCF
S1131690002800D0FCE1002200233000290002F0E1
S11316A021FD002803D023002D2243331A70994DC5
S11316B0472F00D8984D032300260C9A2361013349
S11316C09A4322600B9B13AA009321000A9B09985A
S11316D000F0F2F9431C00D09CE00120404215B018
S11316E0F0BD0733B6E780236268DB00511C45D1A7
S11316F0073262600C9A0021134312AA059211AAC0
S11317000392232223600691019308A96368521867
S11317100292009332002B0004970998FFF7E3FE2E
S113172020233A0005009A43472A07D1119BDA1C6B
S113173002DB626893425BDD023FFFB21199652FC1
S11317403BD8200001393A0050301191FFF72FFFA8
S1131750129A060083182361012A02DC2268D20748
S113176001D501332361232308AA9B181B78002B7E
S1131770A8D023002D2243331A70A3E7672F01D08A
S1131780472FB7D1002A16D00C9908A80B43002183
S1131790069112A9059111A9039123210918236027
S11317A0019300922B000497029132000998FFF7ED
S11317B09AFE0500BAE701229BE7662F19D16368F8
S11317C000290CDD2161002B02D12268D20702D549
S11317D001335B182361119B0026A365C3E7002B2B
S11317E003D101222168114200D09A1C2261F2E740
S11317F06727119B1298834205DB22682361D20775
S1131800E9D50133E6E70122002B01DC9218D21A54
S11318101218EBE72268530508D423692A000A99B1
S113182009980B9DA847431C29D156E7652F00D87A
S1131830DCE0A06CE16C0022002302F04DFC0028E7
S113184035D00123354A0A9909980B9DA847431CB2
S113185000D142E7119B129A934202DB2368DB0713
S11318600DD50B9D0E9B0D9A0A990998A847002542
S1131870431C00D131E7129B013B9D420BDB2368E3
S113188000259B0700D5FDE0139BE068984200DB30
S113189025E7180023E7220001231A320A99099840
S11318A00B9EB047431C00D117E70135E3E7119BBA
S11318B0002B35DC0123194A0A9909980B9EB0477D
S11318C0431C00D109E7119B002B05D1129B002B6F
S11318D002D12368DB07D2D50B9E0E9B0D9A0A9981
S11318E00998B0470026431C00D1F6E6119B5B42E1
S11318F09E4201DB129B91E7220001231A320A99CE
S113190009980B9FB847431C00D1E6E60136EDE782
S1131910FFFFEF7FD8610000D4610000E4610000A4
S1131920A36D129E9E4200DD1E00002E35DC0023B6
S11319300C93F343DB170F930F9BA76D0C9A334063
S1131940FB1A9A4232DB119B129A93423CDB2368C6
S1131950DB0739D4129E119AF31BB61A9E4200DD9E
S11319601E00002E39DCF7430025FB170C93119A57
S1131970129B0C999B1A32000A409B1A9D4200DB71
S11319807DE7220001231A320A9909980B9FB84770
S1131990431C00D1A1E60135E9E733002A000A9986
S11319A009980B9FB847431CC1D196E62200012336
S11319B01A320A9909980B9FB847431C00D18CE648
S11319C00C9B01330C93B7E70E9B0D9A0A99099867
S11319D00B9EB047431CBDD17FE6EA1933000A9938
S11319E009980B9DA847431CBDD176E6129B012B99
S11319F002DC01231A4238D001232A000A990998EB
S1131A000B9FB847431C00D167E60E9B0D9A0A99B9
S1131A1009980B9FB847431C00D15EE6A06CE16CAB
S1131A200022002302F058FB002808D00025129B56
S1131A30013B9D420DDB220033005032EFE6129B46
S1131A406A1C013B0A9909980B9DA847431CF2D1D3
S1131A5043E6220001231A320A9909980B9FB847DA
S1131A60431C00D139E60135E1E72A00EAE7220008
S1131A70012319320A9909980B9EB047431C00D1DF
S1131A802BE60135E368139A9B1A9D42EFDBFBE6D4
S1131A9032002B003000290004F028FA002800D17D
S1131AA021E6034D472F00D905E6024D03E6C04663
S1131AB0E0610000DC610000F7B5150001938A685D
S1131AC00B6900900C00934200DA130022002B6093
S1131AD043321278002A01D001332B6023689B061D
S1131AE002D52B6802332B60062723681F4027D0BA
S1131AF0230043331B785A1E93412268920630D444
S1131B002200019943320098089EB047431C25D017
S1131B10062320682A68E16803400025042B03D1CA
S1131B208D1AEB43DB171D40A3682269934201DD44
S1131B309B1AED180027BD4220D1002010E0013788
S1131B40E3682A689B1A9F42D2DA220001231932E1
S1131B5001990098089EB047431CF0D101204042EF
S1131B60FEBD3020E1184331087021005A1C453174
S1131B700978A218433202331170C1E7220001230D
S1131B801A3201990098089EB047431CE6D00137E9
S1131B90D1E70000F0B58BB006920A0043320793F8
S1131BA0059004920A7E0C00109B6E2A00D18FE0EF
S1131BB017D8632A2CD008D8002A00D199E0582AD3
S1131BC054D026004236327029E0642A01D0692AB2
S1131BD0F7D121681A68080623D5111D1960156804
S1131BE025E0732A00D188E008D86F2A29D0702A0A
S1131BF0E7D1202209680A43226003E0752A20D035
S1131C00782ADED122007821453211706C4A30E006
S1131C100E001A684236111D1960136833700123CF
S1131C2079E04906D9D5111D19600023D55E002D30
S1131C3003DA2D23049A6D421370624B0A2703932F
S1131C402FE020681968050603D5081D18600D6883
S1131C5005E04006F9D50D68081D1860ADB2594B72
S1131C60082703936F2A18D00A2716E045310A7013
S1131C70544A03921A682168101D186015680806F2
S1131C8022D5CB0702D52023194321601027002D2C
S1131C9003D1202322689A43226023000022433385
S1131CA01A706368A360002B5CDB042221689143F3
S1131CB02160002D58D1049E002B64D02600039B84
S1131CC042361B7833705EE04806DAD5ADB2D8E709
S1131CD009681A68080605D5111D19601368626938
S1131CE01A6006E04906F7D5111D19601368A28A27
S1131CF01A800023049E236154E01A68111D1960A0
S1131D00166800216268300001F07EFA002801D0D4
S1131D10801B6060636823610023049A137041E0B0
S1131D202369320006990598079DA847431C43D0B0
S1131D30236800259B070FD4099BE06898423DDA8D
S1131D4018003BE022000123193206990598079EEA
S1131D50B047431C30D00135E368099A9B1A9D4271
S1131D60F0DBE9E7002DA9D0049E2800390002F039
S1131D70B3F8039B013E5B5C28003370390002F02A
S1131D8025F8051EF1D1082F09D12368DB0706D5F4
S1131D9063682269934202DC3023013E3370049B62
S1131DA09B1B2361079B09AA00932100069B0598AE
S1131DB0FFF782FE431CB3D1012040420BB0F0BDBB
S1131DC0F7610000E66100000FB40B4B13B51C680B
S1131DD0002C05D0A369002B02D1200001F0FCF8EF
S1131DE005AB049AA1682000019301F0D9FD16BC4B
S1131DF008BC04B01847C046040000204A424A41C7
S1131E00802310B55200DB0000F002F810BD000082
S1131E10F0B51D004F4B85B01E6804000F00009202
S1131E20002E05D0B369002B02D1300001F0D4F8A4
S1131E30494B9C4250D17468009B022B05D0012B66
S1131E4000D984E0002D00DA81E02100300001F0A7
S1131E5055F8616B002908D023004433994202D01D
S1131E60300001F0CDFC002363630023A3616360B1
S1131E70A3891B0603D52169300001F0C1FCA389A5
S1131E80364A1340A381009B022B5AD003AB02AA0B
S1131E902100300001F042F9A3891843A081002DEC
S1131EA024D1029D280001F0A5F90195071E42D115
S1131EB0029B0193AB4239D1012040420223A28903
S1131EC01343A3810023A3602300473323602361CA
S1131ED00123636105B0F0BD214B9C4201D1B4687C
S1131EE0AAE7204B9C42A7D1F468A5E7002FD9D0DC
S1131EF0B369002B02D1300001F06EF8009B012B76
S1131F0003D1A389009A1A43A2810820A3892760D8
S1131F1027616561184018D00120184000239842B9
S1131F2011D06D42A360A5611800D3E7019801F0B8
S1131F3061F9071EC0D08023A289019D1343A381A8
S1131F40D6E70020BAE7A560C4E7A060C2E7012095
S1131F504042BFE704000020386200005CF3FFFF4A
S1131F6058620000186200000023C25C0133002A9A
S1131F70FBD1581E70470000F8B505000E00140090
S1131F80002804D08369002B01D101F025F8224BED
S1131F909C422DD16C68A369A360A3891B0731D52A
S1131FA02369002B2ED023682269F7B2981A63693B
S1131FB0F6B2984205DB2100280000F09FFF0028BC
S1131FC026D1A3680130013BA36023685A1C226018
S1131FD01F706369984204D0A389DB071AD50A2EBF
S1131FE018D12100280000F089FF002812D00FE04A
S1131FF00A4B9C4201D1AC68CDE7094B9C42CAD143
S1132000EC68C8E72100280000F00CF80028CAD0CA
S1132010012676423000F8BD3862000058620000A4
S113202018620000364B70B51D6806000C00002DC8
S113203005D0AB69002B02D1280000F0CDFF314B55
S11320409C420FD16C680C23E25E93B219072DD425
S1132050D90611D409230120336037331343A381F4
S1132060404270BD284B9C4201D1AC68EBE7274B42
S11320709C42E8D1EC68E6E75B0713D5616B002965
S113208008D023004433994202D0300001F0B8FB59
S1132090002363632422A3899343A3810023636001
S11320A0236923600823A2891343A3812369002B96
S11320B00BD1A0218022A389890092000B40934276
S11320C003D02100300001F051F80123A28913400C
S11320D011D00023A36063695B42A36100202369DC
S11320E08342BED10C23E25E1306BAD540231343C8
S11320F0A3810138B5E7920700D46369A360EDE7D3
S113210004000020386200005862000018620000D9
S1132110F0B503690C6989B00700059100269C425B
S11321206DDC0B00013C1433A50003935B1904938D
S11321300300143302935D19049B28681B68591C1F
S1132140019301F043FE0190B0422DD0039B02980D
S11321509C460696624608CA9446019A99B251432F
S11321601B0C534389190A0C9B18079302881E0CF5
S1132170069B89B2D2180368521A190C6B469B8BC2
S1132180CB1A11145B18191492B21B041A43049B42
S1132190069104C06345DDD22B68002B04D1029B59
S11321A0043DAB422ED33C610599380001F049FA55
S11321B0002823DB0025019B029801330399019336
S11321C008C9028855199AB2AA1A05681B0C2D0C65
S11321D0EB1A15145B191D1492B21B04134308C0A7
S11321E0049B8B42ECD2029AA300D3181A68002AEB
S11321F004D1029A043B9A4209D33C61019E300007
S113220009B0F0BD2B68002BCDD1013CC7E71A689B
S1132210002AF2D1013CECE7F0B516001F00446A35
S11322209DB00490259D06960797002C08D1102098
S113223000F0E0FF049B5862446084600460C46062
S1132240049B5B6A196800290BD05A6801239340E8
S11322504A608B60049801F01AF80022049B5B6AC0
S11322601A60079B002B1FDA01232B607B005B089D
S11322700793079CB74B220019931A409A4216D130
S1132280B54B249A1360069B002B03D1240301D180
S113229000F091FDB14B269A0A93B14B002A01D06C
S11322A000F08FFD00F08FFD00232B60E1E7069E18
S11322B0079F002200233000390001F00DFF051EA6
S11322C00ED00123249A1360A64B269A0A93002A5F
S11322D001D100F078FDA44A26990A6000F073FD4C
S11322E01AAB01931BAB009332003B00049801F03E
S11322F025FA630005905B0D00D17FE03A039B4C07
S1132300120B144321009A4A300018959E1800229B
S1132310984B03F0D5FA984A984B03F051F8984A31
S1132320984B02F009F9040030000D0003F032FE6E
S1132330954A964B03F044F802000B002000290054
S113234002F0FAF804000D0003F0F0FD00220390FF
S113235000232000290001F0C5FE00280ED00398B8
S113236003F018FE0B0002002900200001F0B4FE67
S1132370030058425841039B1B1A039301231693ED
S1132380039B162B0FD88249DB00C91808684968DB
S1132390069A079B01F0BAFE00284BD0039B013B31
S11323A00393002316931A9B9E1B00230B93330065
S11323B0013B0C9304D501239B1B0B9300230C932B
S11323C0039B002B38DB039A0C9B944663440C93C9
S11323D000230F920893229B0125092B00D991E039
S11323E0052B02DD0025043B2293229B981E032823
S11323F000D991E001F0E0FC828429761A9B1B9AB3
S11324009E18644BF218202A0FDD634B0698F318CC
S1132410D84040239B1A9C40204303F0FDFD012338
S11324205E4C013E0919189371E7202306989B1A04
S11324309840F2E71690B6E70B9B039A9B1A0B930E
S11324405342089300230F93C5E701230E93239B64
S1132450002B65DD1F000D93049A546A002262600C
S113246004321100143199425FD96168049800F074
S1132470D6FE049B20605B6A1B680A930E2F00D96A
S113248005E1002D00D102E1069B079C14931594ED
S1132490039B002B00DC85E01A000F213C4B0A4013
S11324A0D2009B185C681B6810931194039B022450
S11324B01D11EB060AD53A4B0D401A6A5B6A149853
S11324C0159902F049FB069007910134344E002D12
S11324D030D1109A119B0698079902F03DFB0690A3
S11324E007917AE00123239A0E939446039B634455
S11324F05F1C0D933B1EAFDC0123ADE70023A5E772
S11325000023F0E700230E952293013B00220D9354
S11325101F00133323929FE701230E93023BF5E739
S113252001230D931F001A00F4E761685200013182
S1132530616096E701231D4208D010981199E418B0
S11325403268736802F03CFF109011916D100836E8
S1132550BDE7C0460000F07F0F27000011620000B5
S113256014620000E4610000E56100000000F03F37
S113257001FCFFFF0000F83F61436F63A787D23F70
S1132580B3C8608B288AC63FFB799F501344D33F5E
S1132590A06200003204000012040000000010FEDB
S11325A078620000039B0224002B16D0149815991E
S11325B05D420F23CA4A2B40DB00D3181A685B68BC
S11325C002F0FEFE002306900791C64E2D11002D49
S11325D000D08CE0002B00D081E7169B002B00D1AB
S11325E091E0069A079B109211931098119900227A
S11325F0BD4B01F077FD002800D184E0002F00D10D
S113260081E00D9B002B3EDD10981199039B002265
S11326105E1EB64B02F0D4FE069007910D9D013468
S1132620200003F0B7FC069A079B02F0C9FE0022C3
S1132630AF4B01F081FF12901391129B139CAD4A92
S113264010931194139B9C181194002D5ED106983D
S113265007990022A84B03F033F9109A230006903F
S1132660079101F053FD002800D001E3A34813991A
S1132670844661440B0006980799109A01F032FDD4
S1132680002800D0E8E2149B159C069307941B9B3A
S1132690002B00DA57E1039A0E2A00DD53E1904B38
S11326A0D2009B185C681B6808930994239B002B39
S11326B000DBCEE0002F00DDCBE000D0CFE20898B5
S11326C0099900228C4B02F07BFE069A079B01F0CD
S11326D027FD3E000897002800D0A4E20A9B0A9A2E
S11326E05D1C31231370039B013303939FE201228A
S11326F0154205D0A4183268736802F061FE012304
S11327006D10083663E7039E3D0089E70A9A691E47
S1132710521917920E9A724BC900002A4AD05B18BC
S11327201A685B680020764902F016FA109A119B29
S113273003F0C6F80A9B109011911293069807991A
S113274003F0F4FB040003F025FC02000B000698E0
S1132750079903F0B5F8129B30345D1C1C70109A75
S1132760119B0690079101F0BDFC002865D1069AE3
S1132770079B00205C4903F0A3F8109A119B01F019
S1132780B1FC002800D0BEE0179B9D4200D17AE73F
S1132790109811990022554B02F012FE002210905D
S11327A0119106980799514B02F00AFE1295069072
S11327B00791C3E7591808684968109A119B02F0F9
S11327C0FFFD109011910A9C179D0698079903F03C
S11327D0ADFB129003F0DEFB02000B000698079994
S11327E003F06EF8129B0690079130332370179B09
S11327F001340022A34224D1414B1098119901F0D5
S11328009BFE02000B000698079901F07FFC00284C
S113281000D078E0109A119B0020394903F050F859
S113282002000B000698079901F05CFC002800D117
S113283029E76B1E1A78302A01D003963FE01D0069
S1132840F7E706980799294B02F0BAFD069007911D
S1132850BBE70A9E089A099B0698079902F07CF93F
S113286003F064FB040003F095FB089A099B02F053
S1132870A7FD0B0002000698079903F021F8230036
S1132880303333700A9B751CEB1A9F424CD1020003
S11328900B0001F051FE06000F0002000B00089827
S11328A0099901F01FFC00282CD1089809993200DD
S11328B03B0001F011FC002801D0E30722D4059964
S11328C0049800F0E4FC00232B70039B249A01334A
S11328D01360269B002B00D175E21D6073E2C04695
S11328E0A0620000786200000000F03F0000244075
S11328F000001C400000C0FC000014400000C07C2C
S11329000000E03F039E6B1E1A78392A06D10A9A0A
S11329109A4207D130231370130001361A7801321A
S11329201A708AE71D00EEE70022CF4B02F048FD43
S113293000220023069007912E0001F0CDFB002811
S113294000D187E7BBE70E9A002A00D187E0229ADC
S1132950012A6EDC189A002A67D0C44A9B18089D85
S11329600B9C0B9A0121D2180B920C9A0498D31841
S11329700C9300F02AFD0600002C0EDD0C9B002BAE
S11329800BDD0C9A2300944200DD13000B9AE41A29
S1132990D21A0B920C9AD31A0C93089B002B1ED0BC
S11329A00E9B002B5FD0002D11DD31002A0004980E
S11329B000F0A4FD059A01000600049800F00EFD45
S11329C005991090049800F062FC109B0593089BF5
S11329D05A1B04D00599049800F090FD059001213C
S11329E0049800F0F2FC0F9B0890002B3DDD1A00C8
S11329F00100049800F082FD229B08900025012B21
S1132A003BDC0025069BAB4233D1079B1B03AB4247
S1132A102FD1199B079A13422BD00B9B01350133FD
S1132A200B930C9B01330C9323E036231A9A9B1AC5
S1132A3095E7089B7D1EAB4206DB5D1B002F0BDA7E
S1132A400B9BDC1B00238CE7089B0895EA1A0F9B61
S1132A5000259B180F93F1E70B9C3B0081E7089D31
S1132A600B9C0E9E88E7089AB4E7229B0025012B55
S1132A70C7DD0F9B0120002B0BD0089B089A1B6914
S1132A800F9303339B00D318586800F055FC2023A0
S1132A90181A0C9BC0181F23184000D1ABE0013357
S1132AA01B1A042B00DC9BE01C23181A0B9B241814
S1132AB01B180B930C9B1B180C930B9B002B05DD15
S1132AC01A000599049800F06BFD05900C9B002BEF
S1132AD005DD1A000899049800F062FD0890169B21
S1132AE0002B00D189E00899059800F0AAFD002880
S1132AF000DB82E0039B0A22013B03930599002338
S1132B00049800F0DDFB0E9B0590002B00D15DE1E5
S1132B10002331000A22049800F0D2FB0D9B06002A
S1132B20002B02DC229B022B6DDC002C05DD310026
S1132B302200049800F034FD06003000002D11D06E
S1132B407168049800F06BFB3100040033690C31A8
S1132B509A1C92000C30FEF7B5FC01222100049867
S1132B6000F01EFD0D9F0A9B013F0B93DB193700FC
S1132B7006000F9308990598FFF7CAFA39000D90DB
S1132B800400059800F05DFD32000E900899049849
S1132B9000F070FD01230C93C36830340500002B52
S1132BA004D10100059800F04CFD0C902900049814
S1132BB000F06DFB0C9B229A134300D089E0069A27
S1132BC00133134200D084E0392C00D1A3E00E9BE2
S1132BD0002B01DD0D9C31340B9B5D1C1C7027E028
S1132BE0042B00D169E70B9A1C33D2180B920C9A70
S1132BF0E418D31860E70300F5E7002F3CDC229BC0
S1132C00022B39DD0D970D9B002B0CD10899052261
S1132C10049800F055FB08900100059800F011FDA0
S1132C20002800DD5AE5239B0A9DDB43039300271C
S1132C300899049800F02BFB002E00D13FE6002FEA
S1132C4005D0B74203D03900049800F020FB3100CE
S1132C50049800F01CFB32E608952E00E3E70023FD
S1132C6008931E00DFE7C046000024403304000040
S1132C70039608952E0031E50E9B0D97002B00D08E
S1132C8053E70A9D08990598FFF742FA0A9B3030EA
S1132C900D9A287001350400EB1A9A4278DC151E4F
S1132CA000DC012500270A9B5D190599012204987F
S1132CB000F076FC0899059000F0C3FC00282FDC96
S1132CC001D1E3072CD46B1E1A78302AB0D11D0031
S1132CD0F9E70E9B002B07DB1D00229B1D4326D129
S1132CE00123069A134222D10C9B002B00DC73E7CC
S1132CF005990122049800F053FC0899059000F00E
S1132D00A0FC002804DC00D066E7E30700D463E7F6
S1132D10392C00D05EE70B9B0B9A5D1C3923137092
S1132D206B1E1A78392A3BD001321A7080E70B9B4C
S1132D3001330D930C9B002B05DD392CEBD00D9D3D
S1132D4001340B9B4AE70B9B0F9A0D9D1C70934219
S1132D50ABD000230A220599049800F0B1FA0023AD
S1132D6005900A2239000498B74206D100F0A8FA67
S1132D70070006000D9B0B93FCE600F0A1FA31005E
S1132D80070000230A22049800F09AFA0600F1E7EB
S1132D9000230A220599049800F092FA059071E73D
S1132DA00A9A9A4205D1039B01330393312313708A
S1132DB03EE71D00B4E70A4B269A0A93094B002A02
S1132DC001D0269A13600A981DB0F0BD0D9B002B0C
S1132DD000DD56E7229B022B00DC52E713E7C046D6
S1132DE00862000010620000F7B58A8905000C0033
S1132DF0130760D44B68002B04DC0B6C002B01DC44
S1132E000020FEBDE76A002FFAD000232E682B6055
S1132E1080235B011A4034D0606DA3895B0706D51B
S1132E206368C01A636B002B01D0236CC01A0200C4
S1132E30216A00232800E76AB847A189431C06D108
S1132E402B681D2B31D82C4ADA40D3072DD500230B
S1132E50636023692360CB0405D5431C02D12B682E
S1132E60002B00D16065616B2E600029C8D023005F
S1132E704433994202D0280000F0C2FC0020606371
S1132E80BFE70123216A2800B847431CC5D12B683A
S1132E90002BC2D01D2B01D0162B01D12E60AFE721
S1132EA04023A2891343A381ABE740230B430120B2
S1132EB0A3814042A5E70F69002FA1D00B680F60E2
S1132EC0DB1B01930023920700D14B69A360019B94
S1132ED0002B00DC94E7019B3A00216A2800A66AD3
S1132EE0B047002803DC4023A2891343DFE7019B9A
S1132EF03F181B1A0193EAE7010040200B6970B5E3
S1132F0005000C00002B01D1002070BD002804D066
S1132F108369002B01D100F05FF80B4B9C4209D16F
S1132F206C680C22A35E002BEED021002800FFF772
S1132F305BFFEAE7054B9C4201D1AC68F1E7044B27
S1132F409C42EED1EC68ECE7386200005862000065
S1132F501862000010B5024900F0B2F810BDC04676
S1132F60FD2E0000002310B504000360436083605D
S1132F7081814366C2810361436183611900082230
S1132F805C30FEF7A8FA054B24626362044BA3622B
S1132F90044BE362044B236310BDC046FD3B0000B9
S1132FA0253C00005D3C0000893C000070B56825AC
S1132FB04A1E55430E002900743100F06BFC041EB8
S1132FC008D000212A00016046600C30A0606832FD
S1132FD0FEF781FA200070BD836913B50400002B4D
S1132FE028D18364C3640365134B144A1B6882624B
S1132FF00193984201D101238361200000F020F85D
S11330006060200000F01CF8A060200000F018F8B8
S11330100022E06004216068FFF7A4FF0122092177
S1133020A068FFF79FFF02221221E068FFF79AFFD2
S11330300123A36113BDC046D0610000552F0000D9
S1133040F8B51E4B07001E68B369002B02D130008F
S1133050FFF7C2FF4836B4687368013B04D5336890
S1133060002B07D03668F6E70C22A55E002D0DD0A4
S11330706834F2E704213800FFF798FF3060002835
S1133080F0D10C2304003B602000F8BD0123200094
S11330905B42E3810233A38165662560A5606560B8
S11330A025616561A561082229005C30FEF713FAE9
S11330B06563A563A564E564E6E7C046D0610000E6
S11330C0F7B504000700002601914834002C01D113
S11330D03000FEBD6368A5680093009B013B00932C
S11330E001D52468F2E7AB89012B08D90E22AB5E27
S11330F0013304D029003800019B98470643683502
S1133100EBE70000034B1B68186A002800D1024853
S1133110F0307047040000206800002070B50E00F5
S11331201D000E23C95E90B01400002907DA0023A5
S11331302B60B3891B0611D48023DB000FE001AAA6
S113314000F0CEFD0028F2DBF022029B12021340B5
S1133150054A9B185A4253412B60EDE74023002057
S1133160236010B070BDC04600E0FFFFF7B5022633
S11331708B8905000C00334206D0230047332360BB
S1133180236101236361F7BD01AB6A46FFF7C6FF04
S113319000990700280000F07DFB002808D10C22CC
S11331A0A35E9A05EFD4032293431E43A681E4E76A
S11331B00F4BAB628023A28920601343A381009B41
S11331C020616361019B002B0DD00E23E15E28007A
S11331D000F098FD002806D00322A38993431A0027
S11331E001231343A381A0893843A081CBE7C046C0
S11331F0552F000010B5034B0100186800F04AFB7E
S113320010BDC04604000020C9B28218904201D10A
S11332100020704703788B42FBD00130F6E770B58D
S1133220466A04000D00002E07D11020FFF7E2FFCC
S11332306062466086600660C660666AF368002B5A
S113324013D0636AAA00DB689B181868002818D199
S113325001210E00AE40721D9200200000F0C2FA5F
S113326000280CD0456086600DE021220421200056
S113327000F0B8FA636AF060DB68002BE1D100204B
S113328070BD02681A6000230361C360F8E770B57B
S1133290446A06000D00002C07D11020FFF7AAFF96
S11332A07062446084600460C460002D07D0736A57
S11332B06A68DB6892009B181A682A601D6070BDFA
S11332C0F7B51E0014239C4607000C0000200D696E
S11332D08C44634619881B6851431B0C534389195A
S11332E00E0C9B1989B21E0C1B045B18614601303D
S11332F008C18C468542ECDC002E1BD0A3689D429D
S113330012DB63683800591CFFF789FF2100236929
S113331001909A1C92000C310C30FEF7D3F8210076
S11333203800FFF7B4FF019C2B1D9B00E318013507
S11333305E6025612000FEBD0300020C0020824275
S113334001D11B0410301A0E01D108301B021A0FD0
S113335001D104301B019A0F01D102309B00002BD4
S113336003DB01305B0000D4202070470722036890
S113337010B501001A400DD001240020234205D1CC
S11333800230034203D0E34020000B6010BD9B08D1
S11333900B60FBE79CB21000002C01D110201B0C29
S11333A0DAB2002A01D108301B0A1A0701D104300D
S11333B01B099A0701D102309B08DA07E8D45B089D
S11333C001D00130E4E72020E0E710B50C00012132
S11333D0FFF725FF01234461036110BDF0B50B69BC
S11333E01500126989B00C00934201DA2C000D001B
S11333F027692E69A268BB1961680193934200DDB5
S11334000131FFF70CFF030014330093009ABB193A
S113341094469B009C4413000022049063451CD3F3
S11334202A001434BF00E3191432B600059393192B
S113343002940693069B9A4211D3019B002B06DD4E
S113344004235B429C4463461B68002B51D0049BBD
S1133450019A18001A6109B0F0BD04C3DEE71488AC
S1133460002C1ED00026009D029F01CF079508CD99
S1133470039383B2634319006B46000C9B8960433A
S1133480CB1803999B19090C4118180C09180E0C38
S11334909BB209040B4307990B60059BBB42E4D81C
S11334A02E6013681B0C03931ED00026009B029C05
S11334B01B68009807002188039D9BB2694320C8BC
S11334C02D0C49198E1931040B433B6008CC039928
S11334D01B0C4B437968360C89B25B1805999B1910
S11334E01E0CA142E6D80360009B0432043300930F
S11334F0A0E7019B013B01939FE700000323F7B57D
S1133500134005000E001400002B08D02249013B93
S11335109A00525800233100FFF7D2FE0600A31090
S1133520019336D06C6A002C07D11020FFF762FE9D
S11335306862446084600460C4606F6ABC68002C84
S113354007D116492800FFF740FF00230400B860A4
S113355003600122019B13420AD03100220028009B
S1133560FFF73CFF070031002800FFF790FE3E0004
S1133570019B5B1001930CD02068002807D1220026
S113358021002800FFF72AFF0023206003600400C5
S1133590DFE73000FEBDC046686300007102000032
S11335A0F0B50D0017002B69541185B0E318029390
S11335B0013301934968AB680390019A934234DB69
S11335C00398FFF72CFE00230200060019001432B2
S11335D0A3422DDBE343DB171C402B001F21A40077
S11335E014192A69143392009A180F4024D0013117
S11335F0C91B8C4600211868B8400143604621600D
S113360002CB0434C1409A42F5D82160002902D08B
S1133610029B02330193019B0398013B3361290010
S1133620FFF735FE300005B0F0BD01315B00C4E7A3
S1133630980011500133CBE702CB02C49A42FBD865
S1133640E9E70A69036930B59B1A0ED19200143078
S1133650143184188918043C043922680D68AA427C
S113366005D0AA42924101231343180030BDA04261
S1133670F1D3FAE7F0B50D0085B00700110028007A
S11336801400FFF7DEFF061E08D101003800FFF723
S1133690C6FD01234661036105B0F0BD012301931A
S11336A0002804DB23002C001D0000230193616823
S11336B03800FFF7B4FD2F000022019B2669C36088
S11336C01434B300E31802932B6914379B00FB18DE
S11336D0039303009446143320CC04CF0192AAB27E
S11336E094446A46614692882D0C8A1A0199090C01
S11336F0691A151449190D1492B209040A431A607F
S1133700039AAC460433BA42E6D802991A008C42B2
S113371005D3043A1368002B0ED00661BCE704CC31
S113372091B261440D14120C5219151489B2120489
S11337300A43AC4604C3E8E7013EEAE7F7B51D00D7
S11337400121089F1400FFF76AFD2B036D0006009A
S11337501B0B6D0D24D10193002C27D068460094D7
S1133760FFF704FE009C00281ED0019B20211A00B4
S1133770091A8A40C340224372610193019CB461D7
S1133780631E9C4101343461002D18D0124BED1896
S113379035232D183D60181A099B18603000FEBDB2
S11337A0802252031343D6E77461E7E701A8FFF7C9
S11337B0DDFD0124019B346173612030E4E7074B94
S11337C0C018074B3860E3189B00F3185869FFF7DB
S11337D0B3FD6401201ADFE7CDFBFFFFCEFBFFFF43
S11337E0FFFFFF3F4A4370B51100140000F052F888
S11337F0051E03D022000021FDF76DFE280070BDD8
S113380070B50500002910D00C1F2368002B00DAC6
S1133810E418280000F0AEFA1D4A1368002B05D105
S113382063601460280000F0A6FA70BDA34209D9B1
S1133830216860188342F3D118685B6841182160DD
S1133840EEE713005A68002A01D0A242F9D9196898
S11338505818A0420BD120680918581819608242E0
S1133860E0D110685268411819605A60DAE7A04242
S113387002D90C232B60D5E721686018824203D15A
S1133880106852684118216062605C60CAE7C046F3
S1133890FC010020032370B5CD1C9D4308350600B0
S11338A00C2D1ED20C25A9421DD8300000F062FA5E
S11338B0254A14682100002919D1244C2368002BBF
S11338C003D1300000F088F920602900300000F0B6
S11338D083F9431C2CD10C233000336000F04BFAE5
S11338E003E0002DDFDA0C233360002070BD0B6889
S11338F05B1B1AD40B2B03D90B60CC18256003E097
S11339008C420ED163681360300000F034FA20005A
S113391007220B30231D9043C31AE7D05A42E250CA
S1133920E4E74B6863600C00EEE70C004968C2E70B
S11339300323C41C9C43A042E0D0211A300000F0B1
S11339404BF9431CDAD1C6E7FC0100200002002039
S1133950936810B5013B9360002B05DA9469A34288
S113396008DBCBB20A2B05D01368581C1060197001
S1133970C8B210BDFEF700FBFBE7F8B506000F0068
S11339801400D518AC4201D1002007E021783A0098
S11339903000FFF7DDFF0134431CF3D1F8BD000014
S11339A0F0B59FB006000F0014000593002804D062
S11339B08369002B01D1FFF70FFB7F4B9F425CD142
S11339C07768BB891B0762D53B69002B5FD0002356
S11339D006AD6B6120336B761033AB760294029C98
S11339E02378002B5DD1029BE31A04930DD0049B32
S11339F0029A39003000FFF7C0FF431C00D1CCE02D
S1133A006A69049B944663446B612378002B00D15C
S1133A10C3E00122002352426A6002A954325218C0
S1133A2001342B60EB60AB601370AB652178052229
S1133A306248FFF7E9FB631C9C46002835D12968DE
S1133A40CB0604D5532302AA20309B1818700B0709
S1133A5004D553232B2002AA9B18187023782A2BF1
S1133A602CD000200A21099B2278303A092A00D858
S1133A706BE000282AD0099328E0514B9F4201D1E2
S1133A80B7689EE74F4B9F429BD1F76899E739008F
S1133A903000FEF7C7FA002899D0012040421FB039
S1133AA0F0BD252B9FD001349AE7444B2968C01AF6
S1133AB0012383400B432B606446B7E7059B181D25
S1133AC01B680590002B3ADB0993644623782E2B60
S1133AD00BD16378621C2A2B3FD1059B02341A1D3B
S1133AE01B680592002B35DB0793217803223648A7
S1133AF0FFF78AFB002807D0334B2A68C01A4023FB
S1133B00834013432B6001342178631C06222F4821
S1133B1002932976FFF778FB002844D02C4B002B26
S1133B202FD12968059B0722C90528D59B189343E3
S1133B30083305936B69039A9B186B614FE75B42EB
S1133B40EB6002230B432B60BFE74B4301349B180C
S1133B50012089E701235B42C6E7002314000A2001
S1133B601A006B6021783039092903D9002BBCD0A5
S1133B700792BAE74243013452180123F2E70733AC
S1133B80D5E705AB00933A00124B29003000FDF74E
S1133B9047FD0390039B0133CCD1BB895B0600D561
S1133BA07BE70B987BE705AB00933A00094B2900B0
S1133BB03000FDF7EFFFECE73862000074630000AB
S1133BC058620000186200007A6300007E630000FF
S1133BD0211600007B390000002370B5064C050057
S1133BE008002360FCF7F2FD431C03D12368002B7B
S1133BF000D02B6070BDC0461402002070B50C00CC
S1133C000E25495F00F0B8F8002803DB636D1B182C
S1133C10636570BDA389024A1340A381F9E7C046D6
S1133C20FFEFFFFFF8B51F008B8905000C0016009D
S1133C30DB0505D50E23C95E0022022300F074F8CB
S1133C40A389054A28001340A38132000E23E15EB4
S1133C503B0000F01FF8F8BDFFEFFFFF70B50C004C
S1133C600E25495F00F060F8A389421C03D1054A80
S1133C701340A38170BD802252011343A381606568
S1133C80F8E7C046FFEFFFFF10B50E23C95E00F052
S1133C9015F810BD70B50500080011000022064C8F
S1133CA022601A00FDF75EF8431C03D12368002B41
S1133CB000D02B6070BDC04614020020002370B5F4
S1133CC0064C050008002360FCF792FD431C03D159
S1133CD02368002B00D02B6070BDC0461402002066
S1133CE0002370B5064C0500080011002360FCF7A2
S1133CF082FD431C03D12368002B00D02B6070BDD0
S1133D0014020020002370B5064C0500080023604F
S1133D10FCF776FD431C03D12368002B00D02B60F5
S1133D2070BDC0461402002070B5050008001100E3
S1133D300022064C22601A00FCF764FD431C03D1E8
S1133D402368002B00D02B6070BDC04614020020F5
S1133D5082B0002900D101A9101E06D0002B06D084
S1133D6013780B601078431E984102B0704702200C
S1133D704042FAE77047704770B50500080011002B
S1133D800022064C22601A00FCF7D8FF431C03D122
S1133D902368002B00D02B6070BDC04614020020A5
S1133DA00B1E04D0FF2A04D98A2303608B3B18001E
S1133DB070470A700123FAE702B4714649084900C2
S1133DC0095C49008E4402BC7047C0460022430887
S1133DD08B4274D303098B425FD3030A8B4244D3CF
S1133DE0030B8B4228D3030C8B420DD3FF22090211
S1133DF012BA030C8B4202D31212090265D0030BD0
S1133E008B4219D300E0090AC30B8B4201D3CB03C5
S1133E10C01A5241830B8B4201D38B03C01A524107
S1133E20430B8B4201D34B03C01A5241030B8B4209
S1133E3001D30B03C01A5241C30A8B4201D3CB02F4
S1133E40C01A5241830A8B4201D38B02C01A5241D9
S1133E50430A8B4201D34B02C01A5241030A8B42DC
S1133E6001D30B02C01A5241CDD2C3098B4201D3F4
S1133E70CB01C01A524183098B4201D38B01C01A72
S1133E80524143098B4201D34B01C01A52410309E9
S1133E908B4201D30B01C01A5241C3088B4201D398
S1133EA0CB00C01A524183088B4201D38B00C01A45
S1133EB0524143088B4201D34B00C01A5241411A6C
S1133EC000D20146524110467047FFE701B5002079
S1133ED000F0F0F802BDC0460029F7D076E770473D
S1133EE003460B437FD4002243088B4274D3030957
S1133EF08B425FD3030A8B4244D3030B8B4228D3F8
S1133F00030C8B420DD3FF22090212BA030C8B421D
S1133F1002D31212090265D0030B8B4219D300E0BD
S1133F20090AC30B8B4201D3CB03C01A5241830B42
S1133F308B4201D38B03C01A5241430B8B4201D3F2
S1133F404B03C01A5241030B8B4201D30B03C01A1B
S1133F505241C30A8B4201D3CB02C01A5241830A95
S1133F608B4201D38B02C01A5241430A8B4201D3C4
S1133F704B02C01A5241030A8B4201D30B02C01AEE
S1133F805241CDD2C3098B4201D3CB01C01A524155
S1133F9083098B4201D38B01C01A524143098B42DE
S1133FA001D34B01C01A524103098B4201D30B01C7
S1133FB0C01A5241C3088B4201D3CB00C01A5241EC
S1133FC083088B4201D38B00C01A524143088B42B1
S1133FD001D34B00C01A5241411A00D2014652414A
S1133FE0104670475DE0CA0F00D04942031000D369
S1133FF04042534000229C4603098B422DD3030ABE
S11340008B4212D3FC22890112BA030A8B420CD3CD
S1134010890192118B4208D3890192118B4204D3F6
S113402089013AD0921100E08909C3098B4201D376
S1134030CB01C01A524183098B4201D38B01C01AB0
S1134040524143098B4201D34B01C01A5241030927
S11340508B4201D30B01C01A5241C3088B4201D3D6
S1134060CB00C01A524183088B4201D38B00C01A83
S11340705241D9D243088B4201D34B00C01A52415A
S1134080411A00D20146634652415B10104601D3E7
S11340904042002B00D54942704763465B1000D371
S11340A0404201B5002000F005F802BD0029F8D017
S11340B016E770477047C0468446101C62468C461B
S11340C0191C634600E0C0461FB501F017F900282B
S11340D001D40021C8421FBD10B501F071F840425F
S11340E0013010BD10B501F009F9002801DB0020F2
S11340F010BD012010BDC04610B501F0FFF8002826
S113410001DD002010BD012010BDC04610B501F036
S113411091F8002801DC002010BD012010BDC0462C
S113412010B501F087F8002801DA002010BD012045
S113413010BDC046F0B5C6464E024702760A7B0A59
S11341404400C50FF7004800984600B5240E2A0025
S1134150DB00000EC90FBC468D4267D0221A002A2C
S113416000DCA5E000283AD1002F00D193E0511ED5
S1134170002900D0BCE00124DB1B5A0146D59B0179
S11341809E09300001F080FF05388640844200DD3E
S11341909DE0041B320020200134E240041BA640B1
S11341A033005E1EB341002413435A0704D00F2288
S11341B01A40042A00D004335A0129D50134FF2CB3
S11341C000D181E02A009B015B0AE4B25B02E405B2
S11341D0580AD2072043104304BC9046F0BDFF2C7C
S11341E0E3D080213800C904084384461B2A00DD3B
S11341F082E020206146D140821A6046904002004D
S1134200501E82410A439B1A5A01B8D45A07CED190
S1134210DE082A00FF2C3AD1002E00D1AEE0802324
S1134220DB0333435B025B0AFF24CFE7211A002937
S113423052DD002831D0FF2CB7D080203E00C004CE
S11342400643B4461B2900DDAAE020266046C84088
S1134250711A66468E4031004E1EB14101435B180F
S11342605901D3D50134FF2C00D187E001227849CC
S11342701A405B080B40134397E7002C00D0A7E0DB
S1134280002B00D0B6E03B1E62D100260022730250
S11342905B0AE4B29AE7140087E7002F4DD0481E6A
S11342A0002857D1634401245A01AFD50224DDE725
S11342B0002A24D1621CD2B2012ADEDDDE1B720187
S11342C035D5FE1A0D005CE72A0000237EE7330093
S11342D0604A241A134068E7002963D1611CC8B2FC
S11342E001284EDDFF2949D063445B080C005CE7DC
S11342F0FF2A41D00A0079E701229B1A84E7002CA7
S11343001DD0FF2822D08024E404524223431B2AD8
S113431000DD8AE01C002025D440AA1A93405A1ECE
S11343209341234362460400D31A0D0025E7002E6F
S113433000D026E700220024A9E70C0035E7002B73
S11343404DD0D243002AEDD0FF28E0D16346FF24AC
S11343500D002AE7FF290FD0010073E7002B61D07D
S1134360FF24002F00D120E780224146D2031142CE
S113437002D0164200D13B00FF2416E7FF2400239D
S113438024E7002CEAD1002B58D0002F00D10CE7F1
S113439063445A0100D439E72E4A0C00134004E761
S11343A001215CE7002C1ED1002B40D0C943002919
S11343B00BD0FF2836D01B2947DC1C002026CC401C
S11343C0711A8B40591E8B4123436344040047E711
S11343D0002B18D13B1E2DD00D00FF24E5E63B0039
S11343E004000D00E1E6FF281CD08024E4044942C7
S11343F02343E0E7002F00D1D7E6DE1B72011FD56F
S1134400FB1A0D00D1E6FF24002F00D1CDE6802257
S11344104046D2031042AFD01642ADD13B000D004E
S1134420FF24C2E66346FF24BFE601237AE73B008C
S11344300400BAE680260022F603F0E63B00B4E668
S1134440331E00D0E2E6002221E70123BDE7C04687
S1134450FFFFFF7DFFFFFFFB41024300C20F490A3C
S11344601B0E00207E2B0DDD9D2B0CDC8020000418
S11344700143952B0ADC9620C31AD9404842002AEE
S113448000D108007047034BD018FBE7963B9940D6
S1134490F4E7C046FFFFFF7F70B5002830D0C31794
S11344A0C4185C40C50F200001F0EEFD9E231B1ACA
S11344B0962B0DDC9622D21A94402A006402640AD8
S11344C0DBB26402DB05600AD2071843104370BDF7
S11344D0992B19DC9922D21A002A29DD9440220052
S11344E0144C1440510704D00F210A40042A00D070
S11344F00434620113D4A401640ADBB22A00E0E7A5
S1134500002200230024DCE705222100121AD140F6
S1134510B922D21A9440621E94410C43DAE7054B47
S11345202A001C409F23A4011B1A640ADBB2C8E7BB
S11345302200D5E7FFFFFFFBF8B54546DE465746A8
S11345404E460C03E0B54E00C90F88460D00610AC3
S1134550440F0C43C70019035800DB0F9B464B0A5A
S1134560510F0B43760D400D1900D200D84500D1F0
S1134570AEE0351A002D00DCF6E000280FD113431D
S113458000D1DBE06B1E002B00D037E1BA1A974252
S1134590BF41641A7F42E41B0126170024E0C64B86
S11345A09E424DD080231B041943382D00DD07E1C2
S11345B01F2D00DD38E12020431B9A460B00504696
S11345C08340994613004846EB4018430300504685
S11345D08240501E8241E9401A43BA1A611A974236
S11345E0A441170064420C1B230262D56402650ACD
S11345F0002D00D1DFE0280001F046FD0300083B58
S11346001F2B00DDD2E020223C00D21A9D40D44072
S11346109F4025439E4200DDC4E09E1B731C1F2B5C
S113462000DDF1E0202238002900D21AD840914060
S113463097402C000143781E8741DC4000260F433D
S11346407B0709D00F233B40042B05D03B1DBB4205
S1134650BF417F42E4191F0023022CD5964B01363B
S11346609E4200D19AE04546944BFF081C406007E7
S1134670760564020743240B760D00212403230BE3
S11346800C0D8F4A24051C431440330523435B005F
S1134690ED075B082B43380019003CBC9046994653
S11346A0A246AB46F8BD6446044300D111E20400BF
S11346B067467B07C6D145466007FF080743E40801
S11346C07D4B9E4230D024037605240B760DD4E72F
S11346D0331A9A46002B78DD002831D0764886427A
S11346E0AED08020000401435346382B00DCE9E0BF
S11346F00A43511E8A410021D219BA42BF41091905
S11347007C4217000C192302D3D56B4B01369E4211
S113471000D13AE10120694B1C407B0807401F434C
S1134720E007074364088BE723003B4300D1CBE158
S11347308022120314432403240B9EE72E007FE7F8
S11347400800104300D1B4E0581E002800D0DEE079
S1134750BA18BA429B4164185B42E4181700012658
S11347602302A6D50226D5E7002D6ED1701C400584
S1134770400D012800DCF9E0B81A844687428041E4
S1134780E51A40422D1A280200D489E0D71BBA4208
S113479092411C1B5242A51AD84629E745460024DB
S11347A000276AE7454CF61A2C4049E73D002838B3
S11347B0854000272EE7380001F066FC20301DE715
S11347C00A43511E8A41002107E7002B00D0F3E081
S11347D0701C43055B0D012B00DCADE0364B9842A9
S11347E000D1D1E0BA18BA42BF4164187F42E4193B
S11347F0E707520817436408060021E72E4885425C
S113480000D193E01D00D0E629001F3EF140202B8B
S113481000D18DE04022D31A9D402F437D1EAF412D
S113482000240F43002644E72B000800203BD84017
S11348300300202D00D17DE04020451BA9400A4300
S1134840511E8A4100211A43C7E6002E50D01A4E49
S1134850B04257D080266B429946360434434B46C7
S1134860382B00DDD6E01F2B00DD35E12026F51ABC
S11348702600AE40B2463E00DE40AC463500564609
S11348802E436546AF407D1EAF41DC403743D71B06
S1134890BA4292410C1B5242A41A0600D846A3E61F
S11348A0644667462C4300D0A2E600250026002774
S11348B006E71E00C4E6C046FF070000FFFF7FFFB7
S11348C0FFFF0F801F2B63DC2020C31A08009840D1
S11348D09C46834653461000D8400300584618436C
S11348E063469A40531E9A4153460243D94003E714
S11348F026003E4306D0EB439946002BC7D0944E86
S1134900B042ACD10C0017000600D84698E6904B94
S11349109A450BD08246E7E6002800D09EE01800B6
S1134920104300D1E9E01C001700D846884E87E602
S1134930002572E7002182E723003B43002E00D0CC
S1134940ABE0002B00D1E7E00B00134300D177E686
S1134950BA18BA42BF4164187F42E419230200D452
S1134960F2E07C4B17001C40060069E62000384347
S1134970002ED1D100285BD11C00144300D1A8E043
S11349801C001700D8465BE606000024002797E6C3
S113499050460B002038C34099465346202B00D183
S11349A095E0402350461B1A99400A43511E8A4100
S11349B04B4600211A439FE6002E30D126003E4389
S11349C067D0DB439A46002B1CD0614EB04260D0C6
S11349D05346382B00DD96E01F2B00DD9FE0202698
S11349E0F31A26009E409C46B34653463E00DE40E2
S11349F033005E461E4363469F407B1E9F415346E1
S1134A00DC403743BF189742924164185242A418BD
S1134A10060078E627437C1EA741002437E74C4E66
S1134A20B04236D080265B4236049A463443CFE700
S1134A301800104300D103E6B81A84466745AD4117
S1134A40E01A6D42401B050200D42CE6D71BBA4283
S1134A5092411C1B5242A41AD846F1E51800104397
S1134A6000D163E7F808670707438020E4080003E0
S1134A70044208D0DD08054205D1D2085907114384
S1134A800F002C00D8467B0FE4001C43FF00304E7F
S1134A90D6E50C0017000600D2E5002B38D00B0039
S1134AA0134300D142E7F808670707438020E4086E
S1134AB000030442E7D0CB080342E4D1D2084907FB
S1134AC011430F001C00DEE700270024D5E5002178
S1134AD06BE700250027F3E54E462500203EF54010
S1134AE04B462E00202B2DD04025ED1AAC402743F9
S1134AF07C1EA74100243743C9E6802400252403F3
S1134B00134E0027DCE527437C1EA741002479E7E8
S1134B100C0017000E4E93E50C00170090E5564666
S1134B202300203EF34099465346202B0ED04023C9
S1134B3056469B1B9C4027437C1EA7414B460024A2
S1134B401F435FE70024D2E71700B2E50024F2E731
S1134B50FF070000FFFF7FFFF0B557464546DE46DE
S1134B604E46E0B54C000E0387B0834692461D00C6
S1134B708046360B640DCF0F002C4FD06F4B9C42F8
S1134B8035D08023420F1B04F60013433343994668
S1134B90C30098466A4B00269C4600236444039352
S1134BA02B031B0B9B466B00ED0F50465B0D0195D1
S1134BB05ED0624A934253D05A46D1008022400FBD
S1134BC0120402430A4393465246D1005C4A944677
S1134BD0002263443800684084460290E41A164375
S1134BE00F2E00D9B4E0574BB6009B599F460300E3
S1134BF0334399466CD10023984602330826039325
S1134C00CEE7CB464146039A0197022A65D1019B20
S1134C104A4C9C460023002298466BE00300334331
S1134C2099464ED0002E00D1BCE1300001F02CFAA0
S1134C3003000B3B1C2B00DDACE11D22D31A5A46AA
S1134C400100DA4008398E401300334399465B462D
S1134C508B40984600233C4C0026241A03939FE77C
S1134C6051465A46114329D1002293460232B1E7F4
S1134C70594601431ED05B46002B00D19EE15846A5
S1134C8001F002FA03000B3B1C2B00DD8FE1020054
S1134C905946083A91408B461D21CB1A5146D940BA
S1134CA00B0059460B4351469B469140264B00222C
S1134CB01B1A8FE7002301229B468BE751460322F0
S1134CC088E700239846013304260024039367E70A
S1134CD00323B14603930C2662E7032A00D15CE266
S1134CE0019B012A00D0E4E113409C4600230024E8
S1134CF00022984600211203130B0A0D12051A43D1
S1134D002305124C40462240134362465B00D207FF
S1134D105B081343190007B03CBC90469946A24671
S1134D20AB46F0BD002380229C4612039846034CF8
S1134D30E0E70023014C00229846DBE7FF07000070
S1134D4001FCFFFF906400000DFCFFFFFFFF0F80DC
S1134D50D94500D939E100D134E1002346464D4616
S1134D609A46013C5B460A0E1B021A430B02170CBF
S1134D70039313041B0C3900280090460193FFF79A
S1134D8025F80200019B83465A43280039009146C6
S1134D90FFF7A2F8350C09040D43A9450DD95B466C
S1134DA04544013BA84500D93AE1A94500D837E17B
S1134DB002235B429C464544E3444B46EB1A3900CC
S1134DC018000493FFF702F8019B050043433900E0
S1134DD004989946FFF780F8330409041B0C0B432D
S1134DE0994509D943446A1E984500D91AE1994561
S1134DF000D817E1023D43444A469B1A5A4612041E
S1134E002A4303999346100C0A0C914609045A4606
S1134E10090C4E460D001204120C454305915143F2
S1134E207243704352190E0CB218954203D980256F
S1134E306D02AC466044150C09041204090C2818D0
S1134E405218834200D2CEE000D1C8E01D1A534666
S1134E509E1AB24592415242AB1A9A46984500D1E5
S1134E6017E139001800FEF7B1FF019B0500434329
S1134E70390050460493FFF72FF804980B04310CC3
S1134E801943884209D941446B1E884500D907E17A
S1134E90884200D804E1023D4144049BCB1A180027
S1134EA039000493FEF792FF019B82464343390085
S1134EB004980193FFF710F801980B043104090CCE
S1134EC0194388420DD953464144013B884500D9D2
S1134ED0E8E0884200D8E5E002235B429C46414476
S1134EE0E244019B2D04CE1A51462943059D4F46A9
S1134EF02A000B04080C1B0C5A4345437B4378439C
S1134F005B19170CFB189D4203D980256D02AC4632
S1134F1060441D0C12041B04120C28189B188642B2
S1134F2000D293E000D18EE001231943A04BE31893
S1134F30002B00DC99E04A0700D09EE05A46D201DB
S1134F4006D55A469B4B1A4080239346DB00E31850
S1134F50994A934268DD0123029A984C1A4000232F
S1134F60944698460022C5E680224B46120313421B
S1134F700AD05B46134206D11A431203120BAC4605
S1134F8088468E4CB6E64B461A431203120BBC46B7
S1134F908A4CAFE603005A46283B9A4000239146C8
S1134FA0984657E6584601F06FF8203040E6030073
S1134FB05246283B9A400021934677E601F064F874
S1134FC020305FE6884500D2C7E64B46DE075D0821
S1134FD043465B081E434346DB079A46C2E6002568
S1134FE0924500D333E7039E5946B446E244B245A2
S1134FF0AD416D424544EB180139984507D29842BA
S113500000D97FE000D1BCE01D1A8B461FE798450C
S1135010FAD1039D5545F2D943468B461D1A16E72E
S11350209B46CAE61500E7E65A46C90852070A43F2
S11350305B0590465C0D5A460123029952021940C1
S1135040120B8C4656E6002B00D16FE746444A1EED
S1135050B04529D91100864200D065E7039A9342EE
S113506000D061E762E7012149420120C21A382ACF
S113507021DD029B03409C4638E60F220A40042AA5
S113508000D15BE70A00111D9142924152429344C0
S113509054E7474BE318002BE5DD01225242F2E7C7
S11350A01D00FAE69A461CE7B04239D86ED01100CA
S11350B03AE702933AE71F2A3CDC20239B1A0C00B0
S11350C05846994098404B1E99415B46D440D34082
S11350D0204308431A00430709D00F230340042B3D
S11350E005D00100081D88429B415B42D21813027F
S11350F03AD50123029A01241A4000239446984683
S11351000022F7E5022149428C46039DE344AC4664
S1135110E244AA45AD416D424544ED182D1A96E688
S11351208A1E03994D008D428941494241447618B3
S113513003958FE71F204042C31A5846D840030006
S1135140202A28D040205D46821A954029434A1ED1
S113515091411943072300220B4009D00F23002259
S11351600B400800042BBDD1010053075202120B5F
S1135170C9081943012388460299002419408C4622
S1135180B8E55245BED88B46002560E6039D9D4296
S1135190C6D3110062E70025D8E780225B461203DC
S11351A01A43019B1203120B9C468846034CA1E54B
S11351B0FF030000FFFFFFFEFE070000FF070000E3
S11351C0F0B54F464646D6465C00C0B51F03DB0F1C
S11351D09A46174B0E034D0084468046360B6D0DE0
S11351E0C90F91463F0B640D01209D4208D09C429B
S11351F001D0A5420BD01CBC90469946A246F0BDF6
S113520063463343F7D1AC42F5D13A43F3D101209D
S1135210BE42F0D1C845EED1514507D0002DEAD1A8
S113522063461E433000461EB041E4E70020E2E737
S1135230FF070000F0B54546DE4657464E46E0B54A
S11352401F033D0B2C4F0E034C00AB465D00844600
S1135250360B640DC90F90466D0DDB0FBC422AD08E
S1135260254FBD422DD0002C0FD13043070081467D
S113527078427841C0B2002D17D15F463A4314D129
S11352804B460020002B0AD006E0002D02D15846E0
S1135290024301D0994218D04842012108433CBC42
S11352A090469946A246AB46F0BD0028F2D00120B4
S11352B0013B1843F3E737000743D1D002204042B3
S11352C0EDE75F461743CED0F8E7AC42E4DC03DAFF
S11352D0481E01210843E2E75E45DDD806D00020E0
S11352E05E45DCD20123481E1843D8E7C445D3D811
S11352F00020C445F6D3D2E7FF070000F0B54E46C0
S11353004546DE4657465C00E0B51F03DB0F994671
S11353102A4B0E034D00C90F8446360B6D0D8B4688
S113532090463F0B640D9D4220D0244B9C4222D0DA
S1135330002D12D1304343424341DBB2002C1FD035
S1135340002B0CD04B460120013B034318003CBC0E
S113535090469946A246AB46F0BD002C16D0CB45EC
S113536017D05B46594201230B43EFE73100022378
S11353700143EBD1D9E7390002231143E6D1D7E742
S11353803A43DDD100230028E0D0EAE73A43E6D1EE
S1135390E7E7A542E5DC05DBBE42E2D807D00023FF
S11353A0BE42D3D25946012301390B43CEE7C4454B
S11353B0D7D80023C445F5D3C8E7C046FF0700008B
S11353C0F0B557464546DE464E46E0B50C039846D2
S11353D04E00230B87B0070092469B46760DCD0FF7
S11353E0002E6BD06D4B9E4235D080245B46420F1D
S11353F02404DB0014431C43C3009946684BA346B2
S11354009C46002300276644029343461C035A002B
S1135410DB0F5046240B520D984600D176E05F4BCB
S11354209A426DD08023410F1B040B435C49E40076
S11354308C461C43C300002062444146B6186940B0
S1135440721C0191944607430F2F00D9B0E0554ACE
S1135450BF00D25997465B460343994600D087E084
S113546000239B46023308270293CEE7424601926B
S1135470022867D0032800D10EE2012800D062E19F
S1135480002300240022994601990140CDB2002155
S113549012030B0D120B1B051343434A240513403F
S11354A01C436400ED0764082C434846210007B000
S11354B03CBC90469946A246AB46F0BD0343994690
S11354C04FD05B46002B00D189E1584600F0DCFD4B
S11354D003000B3B1C2B00DD7AE11D22D31A3A009A
S11354E001005C46DA4008398C4013008F402343A6
S11354F09B46B94600232D4E0027361A029384E7B3
S1135500534623432AD10024022096E753462343DB
S113551020D0002C00D157E1200000F0B5FD03009D
S11355200B3B1C2B00DD49E11D21CB1A5146020027
S1135530D9405346083A944093400C431B4A121AEC
S113554000207AE70125019B144C1D400023002212
S113555099469CE70024002201206EE7534603206D
S11355606BE700239B4601330427002602934CE794
S1135570032381460C27029347E78022002300255A
S113558012039946054C82E75C464B4602986FE746
S11355905C464B46019502986AE7C046FF07000047
S11355A001FCFFFFD0640000FFFF0F800DFCFFFF34
S11355B04A464946170C1A0C1B041B0C0804190014
S11355C0000C41431500884619007D437943039537
S11355D089462900150045434D44029545462D0C46
S11355E0AA46029D5544A94506D98A468021490206
S11355F08946CA4451460391290C04914146090441
S11356002D04090C88462900250C24044144240C4B
S11356100591210041438846210079438A46684325
S1135620414650448146080C48446F43824503D99F
S11356308021490289464F44010C89463900494476
S1135640029141460F0404993F0C88460004C01996
S113565080444146049159460F0C0904090C8846BC
S113566059438A4639005143894641464A43514683
S1135670090C8B467B43D2185A44934203D98023A6
S11356805B029B46D94451460904090C8A464146AB
S113569061437C43130C12044B445244A1468A4692
S11356A03C0041466C434D4351464D440F0C7D191B
S11356B0A94503D98021490288464444049F03999B
S11356C0B84641448B468345804141428846514611
S11356D008042F04000C3F185846029910188946F4
S11356E0904292414F44BA46524299469346C2442C
S11356F0D144CB448F42BF41C245894199459B4126
S1135700934592417F4249422D0C52420F435B42E2
S113571013437F19FF185B463C19DB0D059A64029D
S11357201C43430213435D1EAB415A46C00D034361
S113573052021343E20156D501205A080340134391
S1135740E207134364085A48604400284DDD5A07B1
S113575009D00F221A40042A05D01A1D9A429B41EF
S11357605B42E4181300E20104D58020514AC000D2
S113577014406044504A904200DDE3E60125DB0812
S113578062071A436402019B9146220B4405640D8F
S11357901D407CE6802259461203114208D014426F
S11357A006D122431203120B45469946434C6EE63A
S11357B05B461A431203120B404C68E6030054463E
S11357C0283B9C400023B9E600F05EFC2030A6E6AE
S11357D00300283B9F400023BB4699468AE600F01D
S11357E053FC203074E6B446ADE701252A1A382A62
S11357F006DD019B00241D4000230022994646E655
S11358001F2A21DC20252000AD1A1E00AB40A84031
S1135810D6405D1EAB4130431843D440430709D002
S11358200F230340042B05D00300181D98429B410D
S11358305B42E418230221D50125019B01241D406C
S113584000230022994622E61F2521006D42281AD2
S1135850C1400800202A1DD05F35AA1A9440234372
S11358605C1EA341072503431D400022002D09D0DF
S11358700F2200241A401800042AD6D10300650719
S11358806402220BDB082B4301259946019B00246B
S11358901D40FCE50024E2E7802201251203224397
S11358A001991203120B0D409946044CEFE5C046D2
S11358B0FF030000FFFFFFFEFE070000FF070000DC
S11358C0F0B54646D6464F460C03C0B5CD0F4E0044
S11358D0610A440F0C43C1005800400D84468A46B7
S11358E00F001903500F490A0143C648760DA84614
S11358F0DB0FD200844500D1D8E001204340AB4205
S113590000D1A6E06046351A002D00DC05E1002830
S113591010D10B00134300D1D7E06B1E002B00D035
S11359204BE153469F1ABA458041641A4042241AF7
S113593001261EE0B34B9E4248D080231B0419432A
S1135940382D00DD19E11F2D00DD4CE120230F006F
S11359505B1B10009A409F40E840531E9A41E94067
S1135960074317435346DF1B611ABA45A4416442F7
S11359700C1B230200D4C5E06402650A002D00D18B
S1135980F6E0280000F080FB0300083B1F2B00DD3D
S1135990E9E020223C00D21A9D40D4409F40254398
S11359A09E4200DDDBE09E1B731C1F2B00DD0AE121
S11359B020223800D21A290097402C009140D84068
S11359C07A1E9741DC40002601430F437B0709D030
S11359D00F233B40042B05D03B1DBB42BF417F42FC
S11359E0E4191F00230225D5864B01369E4200D1BF
S11359F0AFE0854B01251C4043466207FF08640263
S1135A0076051743240B760D1D4000212403230B38
S1135A100C0D7E4A24051C431440330523435B00CC
S1135A20ED075B082B43380019001CBC90469946CF
S1135A30A246F0BD012543466207FF081743E40868
S1135A401D40704B9E4236D024037605240B760D00
S1135A50DBE76346F31A002B00DC94E06046002881
S1135A6035D068488642B1D080273F043943382B6B
S1135A7000DCFDE00A43170000217A1E97415744D9
S1135A8057458041091944420C1923023AD55D4B0C
S1135A9001369E4200D14BE101225B4B1C407B0846
S1135AA017401F43E207174364088FE708001043B9
S1135AB000D024E721E723003B4300D1B9E1802251
S1135AC0120314432403240B9FE72E007EE70800EF
S1135AD0104300D1CAE0581E8446002800D0E7E0F5
S1135AE0524452458041641840422418170001264C
S1135AF0230207D50226CFE764462C4300D1B3E145
S1135B002C0067467B0700D062E76307FF081F434A
S1135B1001254346E4081D4093E7002D78D1751C08
S1135B206D056D0D012D00DCF2E05046801A8245B2
S1135B30BF41651A7F42ED1B8446280200D48CE0E5
S1135B405046171ABA4292410C1B5542651B98469F
S1135B5014E70125434600241D40002755E72A4C3D
S1135B60F61A2C4032E73D0028388540002717E715
S1135B70380000F089FA203006E70A4317000021B4
S1135B807A1E9741EEE6002B00D0E5E0731C9C469C
S1135B905B055B0D012B00DC9FE01A4B9C4500D19B
S1135BA0C5E0524452458041641840422418E70736
S1135BB0520817436408664608E71248854200D134
S1135BC085E01D00BCE629001F3EF140202B00D1DA
S1135BD07FE04022D31A9D402F437D1EAF41002415
S1135BE00F4300268EE72B000F00203BDF40202DC3
S1135BF071D040235D1BA9400A43511E8A410021F4
S1135C001743AFE6FF070000FFFF7FFFFFFF0F8092
S1135C10002E3ED0B34EB44545D0802636046D42A6
S1135C203443382D00DDA8E01F2D00DD1FE12026C0
S1135C3027005046761BB740E84007435046B04023
S1135C40461EB041EC403843171ABA4292410C1B2D
S1135C505242A41A664698468BE6644667462C432D
S1135C6000D08BE6002500260027EAE61E00ADE6FC
S1135C701F2B60DC2027F81A0F0084468740100091
S1135C80D840074360468240501E8241D9401743A2
S1135C90F5E626005046064305D0ED43002DD3D04B
S1135CA0904EB445BDD10C001700664698468DE66B
S1135CB08C4883420BD06346D9E6002D00D096E091
S1135CC00800104300D1E2E00C0017009846854E0E
S1135CD07CE6002580E700218EE72300504603433D
