S01D000073616D6432315F31326269745F6D756C74696164632E737265634C
S11300001822002015020000110200001102000055
S113001000000000000000000000000000000000DC
S113002000000000000000000000000011020000B9
S11300300000000000000000110200001102000096
S11300401102000011020000110200001102000060
S11300501102000011020000110200001102000050
S11300601102000011020000110200001102000040
S11300701102000011020000110200001102000030
S11300801102000011020000110200001102000020
S11300901102000011020000110200001102000010
S11300A01102000011020000110200001102000000
S11300B00000000010B5064C2378002B07D1054B37
S11300C0002B02D0044800E000BF0123237010BDC0
S11300D0D001002000000000D05C0000084B10B5E7
S11300E0002B03D00749084800E000BF0748036815
S11300F0002B00D110BD064B002BFBD09847F9E72D
S113010000000000D4010020D05C0000D05C00009E
S11301100000000070B5044D00212800034CA047E6
S113012001212800A04770BD0C0200208D040000AE
S113013030B583B0040001AA0023138002330021E8
S11301402548264DA847022840D1022201A92000B3
S1130150234B98470022A35E224858432249234B4D
S11301609847234B98476060022301AA01211A484B
S11301701A4DA84702282CD1A01C022201A9184B11
S113018098470223E55E174868431749174B984779
S1130190174B9847A060002209E063695B1963610B
S11301A00021635EA1698C466344A3610132114B53
S11301B09A42F2DD0D4D10496069A847E0600E498E
S11301C0A069A8472061002003B030BD012040424F
S11301D0FAE701204042F7E70C020020B9040000CE
S11301E0350E0000E40C0000FF0F0000253900006C
S11301F0B93B0000FE030000FF03000010B5024BF2
S11302009847024B984710BD31040000CD0D000003
S1130210FEE70000F8B5234A234B9A4209D0224B4B
S1130220204A03E011681960043304321F498B42E9
S1130230F8D31F4B02E000221A6004331D4A934294
S1130240F9D31D4AFF211D4B8B439360FD39902345
S11302505B001B4AD1501B4AD3780325AB430224CD
S11302602343D370D3780C27BB4308263343D3707E
S1130270154B987B30229043202210439873997B2E
S1130280B943314399739A7BAA4322439A730F4A21
S1130290516880230B4353600D4B98470D4B98478F
S11302A0FEE7C046D05C000000000020D001002022
S11302B0D00100201402002000ED00E00000000046
S11302C000700041005000410048004100400041DE
S11302D0ED0D0000690C0000F0B5C026F6054023C2
S11302E07360144B144A9A62C02212069A62462022
S11302F0195C0125A94301242143C9B219541338B7
S1130300195C0F27B9432143C9B219548021716084
S11303100A4999629A6247215A5CAA432243D2B29B
S11303205A541A5C38390A4010210A43D2B21A547A
S1130330F0BDC04600440041400000408000004041
S1130340044A116A80235B020B431362024A034B83
S11303505A807047000400401E400000000C00401A
S113036010B5054B9847054B9847002204490548AA
S1130370054B984710BDC04641030000D902000058
S1130380004000420C0200205504000030B50F4B21
S11303905622995C0125A94301242143C9B29954E9
S11303A03B20195C473A914302221143C9B21954C4
S11303B057215A5CAA432243D2B25A541A5C483990
S11303C00A4020210A43D2B21A5430BD00440041ED
S11303D0044A136A20210B431362034A034B5A80D5
S11303E07047C0460004004017400000000C004065
S11303F010B5054B9847002204490548054B98471A
S1130400054B984710BDC046D103000000140042BC
S113041000020020ED0600008D03000010B5024824
S1130420024B984710BDC04610E000E0690500008B
S113043010B5044B9847044B9847044B9847044B1A
S1130440984710BD9109000061030000F10300000A
S11304501D04000070B504000D0000280DD0002913
S113046009D0012039220649064B9847290020006B
S1130470054B984770BD0020F4E70020F2E7C04622
S1130480E457000065070000F508000070B504009B
S11304900D00431E9841C0B24E220449044B9847B4
S11304A029002000034B9847002070BDE45700004A
S11304B0650700002D090000F8B5CE46474680B513
S11304C006000D009046994600281AD0002A1AD03A
S11304D04B46002B19D1002067221C491C4FB847FA
S11304E0340030001B4B98470100060048461A4B65
S11304F0984748424841C0B269221449B847002786
S113050009E00020E8E70020E6E70120E4E7BF195E
S1130510BFB2B94515D92000104B984729002000D7
S11305200F4B98470028F9D0290020000D4B98471D
S11305304346D855012EEAD97B1C000A4246D054C2
S1130540E5E738000CBC90469946F8BDE457000036
S1130550650700003B090000F13A00006109000052
S1130560570900007509000010B5024B1860024BD2
S1130570984710BDEC0100201D0C000010B5044B81
S11305801C68044B984701002000034B984710BD9A
S1130590EC01002083090000290C000070B5040060
S11305A00D00160000280ED000290AD001203422A4
S11305B00649074B984723683200290020009847D2
S11305C070BD0020F3E70020F1E7C04600580000AA
S11305D06507000070B504000D00160000280ED059
S11305E000290AD001203D220649074B9847636839
S11305F0320029002000984770BD0020F3E7002056
S1130600F1E7C0460058000065070000F8B5050092
S11306100E001700002823D0002923D0002A23D15C
S11306200020F1221149124B98472C000834200075
S1130630104B98470028F8D00025715D20000E4B20
S1130640984720000B4B98470028FAD00135BD424B
S1130650F3D32000094B98470028FAD02800F8BDAE
S11306600020DEE70020DCE70120DAE71458000070
S113067065070000930B0000830B00009D0B000036
S1130680F8B5CE46474680B5051E884691461FD02C
S113069000291FD0002A1FD10020862252000F49B2
S11306A00F4B984700262C00083420000D4B984728
S11306B00028F8D043469F1920000B4B9847387008
S11306C001364E45EFD330000CBC90469946F8BD38
S11306D00020E2E70020E0E70120DEE714580000F4
S11306E065070000A90B00008B0B000070B5040027
S11306F00D00002814D0002910D00120342209490B
S1130700094B9847200008302900084B98470028D7
S113071003D1074B6360074B236070BD0020EDE7F6
S11307200020EBE71458000065070000450B0000AB
S1130730810600000D06000010B50400431E984118
S1130740C0B253220449054B984720000830044B9B
S11307509847002010BDC0461458000065070000EB
S1130760710B0000002800D100BE70470300064A48
S11307701268002A04D0044A1068C3181360704732
S11307800249014A1160F6E7F00100201822002016
S113079001204042704780239B014B60002070473A
S11307A001207047002070470020704710B50B4BA4
S11307B0984702000020002806D07F220849002024
S11307C0084B9847002010BDC3001B1A9900064B24
S11307D0CB5C9A42F7D00130C0B2ECE7A907000025
S11307E04C580000650700003058000070B5040044
S11307F00D003A4BC01843425841C0B294223849C4
S1130800384B9847384B1A68D2081202E023DB00B1
S11308101A4036490B6849684901DB0E0B43FF2136
S11308200B401A43637EDB09FCD123789B0704D574
S113083000232370637EDB09FCD101232370637ED4
S1130840DB09FCD12285EA00521B9100284B5B187E
S11308509A786270DA78A2701A79E2701A7C22753A
S1130860DA8AA2841A8BE284997E2A22A154DB8834
S1130870A380637EDB09FCD1EB005B1B9A001C4B5D
S11308809B18DB682361637EDB09FCD1EB005B1BF7
S11308909A00174B9B181B7A2372637EDB09FCD1E9
S11308A0EB005B1B9A00124B9B185B8AA383637E4D
S11308B0DB09FCD1EB005B1B9A000D4B9B189B8A58
S11308C02384637EDB09FCD1EB005D1BAA00084B8B
S11308D09B185B782370002070BDC04600C0FFBD2C
S11308E04C580000650700002460800020608000F0
S11308F03058000070B505000C00431E9841C0B28A
S1130900C5220649064B98472C602000054B9847A2
S113091001002000044B984770BDC0464C580000AD
S113092065070000AD070000ED07000002681378BA
S113093002210B43DBB2137070470268537EDB095C
S1130940FCD19288120903331340032B01D00220F7
S113095070470120FCE70368187E012318407047A4
S11309600268137B02210B43DBB21373537EDB0952
S1130970FCD170470268537EDB09FCD1508B80B2F6
S11309807047C8239B00584383001B1858007047C6
S113099010B5064B5A685A60054B9847054B984763
S11309A0054B9847FF20054B984710BD0040004178
S11309B0E1090000B50B0000F90B0000C1090000BB
S11309C0C3070AD5054B802252009A608322520243
S11309D05A60024B5B78DB09FBD17047000C004086
S11309E0064B1A7AD2B21A725A7AD2B25A729A7AD6
S11309F0D2B29A72DA7AD2B2DA7270470004004044
S1130A00024B9C466044800AC0B2704700F8FFBDA8
S1130A1010B50B4B984702000020002806D0094A65
S1130A2009490020094B9847002010BD83001B187A
S1130A309900074BCB5C9A42F7D00130C0B2ECE787
S1130A40010A00003A020000B458000065070000E3
S1130A506458000070B50400384B9847E369DB071D
S1130A601DD483001B189A00354B9B185A681C230D
S1130A701A40E3699B07FCD123689B0709D52368C7
S1130A8002218B432360E3699B07FCD1E3699B0745
S1130A90FCD4012313432360E3699B07FCD1E3697E
S1130AA0DB07FCD483001B189A00254B9B185B685A
S1130AB02360E3699B07FCD183001B189A00204B39
S1130AC09B189B686360E3695B07FCD183001B1878
S1130AD09A001B4B9B185B689A040BD4C022D2016A
S1130AE0134207D183001B189A00154B9B189B894E
S1130AF0A38115E083001B189A00114989188A897B
S1130B00A389D204D20C5B0B5B031343A3818B7BBD
S1130B1007221A40A3895203DB04DB0C1343A3818D
S1130B20074A83001D18A9000D005118C97BA17341
S1130B305219127C3023E254002070BD110A0000C7
S1130B406458000070B505000C00431E9841C0B203
S1130B50B4220449044B98472C602000034B984767
S1130B6070BDC046B458000065070000550A000077
S1130B700268136802210B431360D3699B07FCD1FD
S1130B807047036889B2198570470368188DC0B22D
S1130B9070470368187E01231840704703681B7E62
S1130BA05B0801201840704703681B7E9B080120E6
S1130BB0184070470E4A116A090C136A9B0F9B0771
S1130BC009040C4801400B4302210B43136293694F
S1130BD00B439361137F1D310B401377044BDB6888
S1130BE01B07FBD5024A136A80210B43136270472B
S1130BF0000800400000FF0F024A936902218B4362
S1130C009361704700080040024B034A5A60052272
S1130C101A60704710E000E0FFFFFF0010B5014BC1
S1130C20984710BD090C0000080E0BE00B4B0C4854
S1130C3058609860094B1B68DB03FBD5094B9C4645
S1130C4061441000421ED2B20028EFD1034B596018
S1130C509960024B1B68DB03FBD5704710E000E092
S1130C60FFFFFF00010000FF70B588B0184B9847E4
S1130C70184B984706E01848184B9847FA2040004C
S1130C80174B984701A8174B98470028F3D101AC9C
S1130C900023E15E1448114DA8470223E15E134886
S1130CA0A847134E6068B04701001248A847A068DF
S1130CB0B04701001048A8472269E1680F48A847D7
S1130CC00F48104B9847FA208000054B9847D5E70A
S1130CD0FD010000150100006059000039170000F3
S1130CE07D05000031010000D0580000E8580000E4
S1130CF0793B0000005900001859000030590000E9
S1130D00445900002D18000010B50B00002809D12B
S1130D1011001800054B9847002800DB10BD012086
S1130D204042FBE701204042F8E7C046850D000041
S1130D3010B50B000138022809D811001800054B22
S1130D409847002800DB10BD01204042FBE701204A
S1130D504042F8E7A90D000070B50600064D2B6867
S1130D6098680021054CA0472B6858680021A047CB
S1130D70034B1E6070BDC0460000002041180000F7
S1130D80F401002010B50400054B1868002804D0B5
S1130D908AB22100034B984710BD0020FCE7C046EF
S1130DA0F4010020D505000010B50400054B1868B7
S1130DB0002804D08AB22100034B984710BD0020BC
S1130DC0FCE7C046F40100209D05000010B5044C6A
S1130DD02000044B98472000034B984710BDC046A1
S1130DE00002002039070000590D000070B50026EC
S1130DF00C4D0D4C641BA410A64209D1002604F02E
S1130E0057FF0A4D0A4C641BA410A64205D170BDBD
S1130E10B300EB5898470136EEE7B300EB58984718
S1130E200136F2E7BC5C0000BC5C0000BC5C000066
S1130E30C05C0000002310B59A4200D110BDCC5C08
S1130E40C4540133F8E703008218934200D1704779
S1130E5019700133F9E7F0B58BB014001D1E129917
S1130E6053DA802424061B191D0014002D230B7053
S1130E702023149E03229E43462E07D03300453B75
S1130E8059424B411099013ACB18109309AB049382
S1130E9008AB0393139B00920293109B22000193CF
S1130EA02B0000F0DBFE0700472E02D1119BDB076D
S1130EB024D5109BFB180793462E14D13B78302B76
S1130EC00CD1002200232000290002F027FE002874
S1130ED004D10123109A9B1A139A1360139B079A47
S1130EE01B68D3180793002200232000290002F076
S1130EF015FE302200280DD0079B09933800099B6A
S1130F00159ADB1B13600BB0F0BD0023AFE7591C2F
S1130F1009911A70099B07999942F8D8EEE7F0B540
S1130F202B2385B007000C000270861C002901DA0F
S1130F302D234C427B70092C23DD02ABDD1D6B1E7F
S1130F4020000A21019302F0D3FD6B1E3031197089
S1130F5020000A2102F0E6FC040009280ADC023D14
S1130F6030342C7002AB07333000AB4204D8C01BC2
S1130F7005B0F0BD019DE2E72B78013533700136F1
S1130F80F0E73023E4183370B01C7470EFE700000E
S1130F90F0B595B00C000A920B931A9D099001F0DC
S1130FA0D3FD036818000D9300F000FD0023129395
S1130FB023680E900C930C99277E2B680722C90591
S1130FC047D59B1893431A0008322A601A685B6855
S1130FD0A264E3640122E56CA66C6B005B080F93CA
S1130FE05242A74B30000F9904F010FB002800D0A8
S1130FF006E20122A24B524230000F9902F09EFDFC
S1131000002800D0FCE1002200233000290002F077
S11310108BFD002803D023002D2243331A70994DF1
S1131020472F00D8984D032300260C9A23610133DF
S11310309A4322600B9B13AA009321000A9B0998F0
S113104000F0F2F9431C00D09CE00120404215B0AE
S1131050F0BD0733B6E780236268DB00511C45D13D
S1131060073262600C9A0021134312AA059211AA56
S11310700392232223600691019308A963685218FE
S11310800292009332002B0004970998FFF7E3FEC5
S113109020233A0005009A43472A07D1119BDA1C02
S11310A002DB626893425BDD023FFFB21199652F58
S11310B03BD8200001393A0050301191FFF72FFF3F
S11310C0129A060083182361012A02DC2268D207DF
S11310D001D501332361232308AA9B181B78002B15
S11310E0A8D023002D2243331A70A3E7672F01D021
S11310F0472FB7D1002A16D00C9908A80B4300211A
S1131100069112A9059111A90391232109182360BD
S1131110019300922B000497029132000998FFF783
S11311209AFE0500BAE701229BE7662F19D163688E
S113113000290CDD2161002B02D12268D20702D5DF
S113114001335B182361119B0026A365C3E7002BC1
S113115003D101222168114200D09A1C2261F2E7D6
S11311606727119B1298834205DB22682361D2070B
S1131170E9D50133E6E70122002B01DC9218D21AEB
S11311801218EBE72268530508D423692A000A9948
S113119009980B9DA847431C29D156E7652F00D811
S11311A0DCE0A06CE16C0022002302F0B7FC002814
S11311B035D00123354A0A9909980B9DA847431C49
S11311C000D142E7119B129A934202DB2368DB07AA
S11311D00DD50B9D0E9B0D9A0A990998A8470025D9
S11311E0431C00D131E7129B013B9D420BDB23687A
S11311F000259B0700D5FDE0139BE068984200DBC7
S113120025E7180023E7220001231A320A990998D6
S11312100B9EB047431C00D117E70135E3E7119B50
S1131220002B35DC0123194A0A9909980B9EB04713
S1131230431C00D109E7119B002B05D1129B002B05
S113124002D12368DB07D2D50B9E0E9B0D9A0A9917
S11312500998B0470026431C00D1F6E6119B5B4277
S11312609E4201DB129B91E7220001231A320A9964
S113127009980B9FB847431C00D1E6E60136EDE719
S1131280FFFFEF7F78590000745900008459000073
S1131290A36D129E9E4200DD1E00002E35DC00234D
S11312A00C93F343DB170F930F9BA76D0C9A3340FA
S11312B0FB1A9A4232DB119B129A93423CDB23685D
S11312C0DB0739D4129E119AF31BB61A9E4200DD35
S11312D01E00002E39DCF7430025FB170C93119AEE
S11312E0129B0C999B1A32000A409B1A9D4200DB08
S11312F07DE7220001231A320A9909980B9FB84707
S1131300431C00D1A1E60135E9E733002A000A991C
S113131009980B9FB847431CC1D196E622000123CC
S11313201A320A9909980B9FB847431C00D18CE6DE
S11313300C9B01330C93B7E70E9B0D9A0A990998FD
S11313400B9EB047431CBDD17FE6EA1933000A99CE
S113135009980B9DA847431CBDD176E6129B012B2F
S113136002DC01231A4238D001232A000A99099881
S11313700B9FB847431C00D167E60E9B0D9A0A9950
S113138009980B9FB847431C00D15EE6A06CE16C42
S11313900022002302F0C2FB002808D00025129B83
S11313A0013B9D420DDB220033005032EFE6129BDD
S11313B06A1C013B0A9909980B9DA847431CF2D16A
S11313C043E6220001231A320A9909980B9FB84771
S11313D0431C00D139E60135E1E72A00EAE722009F
S11313E0012319320A9909980B9EB047431C00D176
S11313F02BE60135E368139A9B1A9D42EFDBFBE66B
S113140032002B003000290004F000F9002800D13C
S113141021E6034D472F00D905E6024D03E6C046F9
S1131420805900007C590000F7B5150001938A68C3
S11314300B6900900C00934200DA130022002B6029
S113144043321278002A01D001332B6023689B06B3
S113145002D52B6802332B60062723681F4027D050
S1131460230043331B785A1E93412268920630D4DA
S11314702200019943320098089EB047431C25D0AE
S1131480062320682A68E16803400025042B03D161
S11314908D1AEB43DB171D40A3682269934201DDDB
S11314A09B1AED180027BD4220D1002010E001371F
S11314B0E3682A689B1A9F42D2DA22000123193278
S11314C001990098089EB047431CF0D10120404286
S11314D0FEBD3020E1184331087021005A1C45310B
S11314E00978A218433202331170C1E722000123A4
S11314F01A3201990098089EB047431CE6D0013780
S1131500D1E70000F0B58BB006920A00433207938E
S1131510059004920A7E0C00109B6E2A00D18FE085
S113152017D8632A2CD008D8002A00D199E0582A69
S113153054D026004236327029E0642A01D0692A48
S1131540F7D121681A68080623D5111D196015689A
S113155025E0732A00D188E008D86F2A29D0702AA0
S1131560E7D1202209680A43226003E0752A20D0CB
S1131570782ADED122007821453211706C4A30E09D
S11315800E001A684236111D196013683370012366
S113159079E04906D9D5111D19600023D55E002DC7
S11315A003DA2D23049A6D421370624B0A270393C6
S11315B02FE020681968050603D5081D18600D681A
S11315C005E04006F9D50D68081D1860ADB2594B09
S11315D0082703936F2A18D00A2716E045310A70AA
S11315E0544A03921A682168101D18601568080689
S11315F022D5CB0702D52023194321601027002DC3
S113160003D1202322689A4322602300002243331B
S11316101A706368A360002B5CDB04222168914389
S11316202160002D58D1049E002B64D02600039B1A
S113163042361B7833705EE04806DAD5ADB2D8E79F
S113164009681A68080605D5111D196013686269CE
S11316501A6006E04906F7D5111D19601368A28ABD
S11316601A800023049E236154E01A68111D196036
S1131670166800216268300001F0E8FA002801D001
S1131680801B6060636823610023049A137041E047
S11316902369320006990598079DA847431C43D047
S11316A0236800259B070FD4099BE06898423DDA24
S11316B018003BE022000123193206990598079E81
S11316C0B047431C30D00135E368099A9B1A9D4208
S11316D0F0DBE9E7002DA9D0049E2800390002F0D0
S11316E01DF9039B013E5B5C28003370390002F056
S11316F08FF8051EF1D1082F09D12368DB0706D521
S113170063682269934202DC3023013E3370049BF8
S11317109B1B2361079B09AA00932100069B059844
S1131720FFF782FE431CB3D1012040420BB0F0BD51
S113173097590000865900000FB40B4B13B51C6871
S1131740002C05D0A369002B02D1200001F066F91A
S113175005AB049AA1682000019301F043FE16BC76
S113176008BC04B01847C0460000002070B505004E
S11317700E00002804D08369002B01D101F04EF93A
S1131780AB69AC68002B02D1280001F047F9244B67
S11317909C420FD16C68A3891B0702D52369002BD7
S11317A020D12100280000F05FF900281AD0012080
S11317B0404270BD1B4B9C4201D1AC68EBE71A4B15
S11317C09C42E8D1EC68E6E7013B0136A360002BBC
S11317D004DAA269934216DB0A2914D023685A1C3E
S11317E0226019703178A3680029EDD1013BA36010
S11317F0002B0FDA22000A31280000F0DFF8431C26
S1131800D5D00A20D5E72200280000F0D7F8431CE1
S1131810E8D1CCE70A2023685A1C22601870C8E774
S1131820D8590000F8590000B859000010B5034B0E
S113183001001868FFF79AFF10BDC04600000020A1
S11318404A424A41802310B55200DB0000F002F8FE
S113185010BD0000F0B51D004F4B85B01E6804009C
S11318600F000092002E05D0B369002B02D1300086
S113187001F0D4F8494B9C4250D17468009B022B70
S113188005D0012B00D984E0002D00DA81E021008D
S1131890300001F055F8616B002908D0230044336F
S11318A0994202D0300001F0CDFC00236363002391
S11318B0A3616360A3891B0603D52169300001F08D
S11318C0C1FCA389364A1340A381009B022B5AD042
S11318D003AB02AA2100300001F042F9A3891843A6
S11318E0A081002D24D1029D280001F0A5F90195C5
S11318F0071E42D1029B0193AB4239D101204042E1
S11319000223A2891343A3810023A3602300473346
S1131910236023610123636105B0F0BD214B9C4228
S113192001D1B468AAE7204B9C42A7D1F468A5E78B
S1131930002FD9D0B369002B02D1300001F06EF82A
S1131940009B012B03D1A389009A1A43A28108208A
S1131950A389276027616561184018D001201840C9
S11319600023984211D06D42A360A5611800D3E70B
S1131970019801F061F9071EC0D08023A289019D5E
S11319801343A381D6E70020BAE7A560C4E7A060AB
S1131990C2E701204042BFE700000020D859000000
S11319A05CF3FFFFF8590000B85900000023C25C43
S11319B00133002AFBD1581E70470000F8B505001A
S11319C00E001400002804D08369002B01D101F01B
S11319D025F8224B9C422DD16C68A369A360A3898E
S11319E01B0731D52369002B2ED023682269F7B257
S11319F0981A6369F6B2984205DB2100280000F0CA
S1131A009FFF002826D1A3680130013BA36023680F
S1131A105A1C22601F706369984204D0A389DB07B3
S1131A201AD50A2E18D12100280000F089FF0028B9
S1131A3012D00FE00A4B9C4201D1AC68CDE7094BB0
S1131A409C42CAD1EC68C8E72100280000F00CF8D9
S1131A500028CAD0012676423000F8BDD8590000CB
S1131A60F8590000B8590000364B70B51D680600DF
S1131A700C00002D05D0AB69002B02D1280000F02A
S1131A80CDFF314B9C420FD16C680C23E25E93B2C4
S1131A9019072DD4D90611D4092301203360373313
S1131AA01343A381404270BD284B9C4201D1AC68D2
S1131AB0EBE7274B9C42E8D1EC68E6E75B0713D5DC
S1131AC0616B002908D023004433994202D03000CE
S1131AD001F0B8FB002363632422A3899343A38109
S1131AE000236360236923600823A2891343A3812D
S1131AF02369002B0BD1A0218022A38989009200A5
S1131B000B40934203D02100300001F051F801232F
S1131B10A289134011D00023A36063695B42A361CF
S1131B20002023698342BED10C23E25E1306BAD59A
S1131B3040231343A3810138B5E7920700D46369B6
S1131B40A360EDE700000020D8590000F859000018
S1131B50B8590000F0B503690C6989B00700059114
S1131B6000269C426DDC0B00013C1433A50003935A
S1131B705B1904930300143302935D19049B2868D2
S1131B801B68591C019301F043FE0190B0422DD013
S1131B90039B02989C460696624608CA9446019A9C
S1131BA099B251431B0C534389190A0C9B18079390
S1131BB002881E0C069B89B2D2180368521A190CAB
S1131BC06B469B8BCB1A11145B18191492B21B042D
S1131BD01A43049B069104C06345DDD22B68002B95
S1131BE004D1029B043DAB422ED33C6105993800DD
S1131BF001F049FA002823DB0025019B02980133F8
S1131C000399019308C9028855199AB2AA1A05685A
S1131C101B0C2D0CEB1A15145B191D1492B21B042A
S1131C20134308C0049B8B42ECD2029AA300D3183E
S1131C301A68002A04D1029A043B9A4209D33C61EF
S1131C40019E300009B0F0BD2B68002BCDD1013CC2
S1131C50C7E71A68002AF2D1013CECE7F0B5160098
S1131C601F00446A9DB00490259D06960797002C9A
S1131C7008D1102000F0E0FF049B586244608460A7
S1131C800460C460049B5B6A196800290BD05A681D
S1131C90012393404A608B60049801F01AF80022F3
S1131CA0049B5B6A1A60079B002B1FDA01232B60DD
S1131CB07B005B080793079CB74B220019931A40DB
S1131CC09A4216D1B54B249A1360069B002B03D17C
S1131CD0240301D100F091FDB14B269A0A93B14B34
S1131CE0002A01D000F08FFD00F08FFD00232B604F
S1131CF0E1E7069E079F002200233000390001F02F
S1131D000DFF051E0ED00123249A1360A64B269ABC
S1131D100A93002A01D100F078FDA44A26990A60AA
S1131D2000F073FD1AAB01931BAB009332003B0030
S1131D30049801F025FA630005905B0D00D17FE063
S1131D403A039B4C120B144321009A4A3000189515
S1131D509E180022984B03F043F9984A984B02F0DE
S1131D60BFFE984A984B01F077FF040030000D0045
S1131D7003F0A0FC954A964B02F0B2FE02000B0061
S1131D802000290001F068FF04000D0003F05EFC50
S1131D900022039000232000290001F0C5FE002842
S1131DA00ED0039803F086FC0B00020029002000EB
S1131DB001F0B4FE030058425841039B1B1A0393DD
S1131DC001231693039B162B0FD88249DB00C918F5
S1131DD008684968069A079B01F0BAFE00284BD0B0
S1131DE0039B013B0393002316931A9B9E1B002322
S1131DF00B933300013B0C9304D501239B1B0B93E2
S1131E0000230C93039B002B38DB039A0C9B944612
S1131E1063440C9300230F920893229B0125092B02
S1131E2000D991E0052B02DD0025043B2293229B7F
S1131E30981E032800D991E001F0E0FC8284297601
S1131E401A9B1B9A9E18644BF218202A0FDD634BD1
S1131E500698F318D84040239B1A9C40204303F073
S1131E606BFC01235E4C013E0919189371E7202392
S1131E7006989B1A9840F2E71690B6E70B9B039AD4
S1131E809B1A0B935342089300230F93C5E7012336
S1131E900E93239B002B65DD1F000D93049A546A57
S1131EA00022626004321100143199425FD96168E2
S1131EB0049800F0D6FE049B20605B6A1B680A93BA
S1131EC00E2F00D905E1002D00D102E1069B079CED
S1131ED014931594039B002B00DC85E01A000F215A
S1131EE03C4B0A40D2009B185C681B681093119409
S1131EF0039B02241D11EB060AD53A4B0D401A6AC6
S1131F005B6A1498159902F0B7F9069007910134A9
S1131F10344E002D30D1109A119B0698079902F087
S1131F20ABF9069007917AE00123239A0E93944625
S1131F30039B63445F1C0D933B1EAFDC0123ADE7A1
S1131F400023A5E70023F0E700230E952293013B2D
S1131F5000220D931F00133323929FE701230E9356
S1131F60023BF5E701230D931F001A00F4E76168B3
S1131F7052000131616096E701231D4208D0109898
S1131F801199E4183268736802F0AAFD1090119157
S1131F906D100836BDE7C0460000F07F0F27000033
S1131FA0B1590000B459000084590000855900005B
S1131FB00000F03F01FCFFFF0000F83F61436F6346
S1131FC0A787D23FB3C8608B288AC63FFB799F504E
S1131FD01344D33F405A00003204000012040000AE
S1131FE0000010FE185A0000039B0224002B16D098
S1131FF0149815995D420F23CA4A2B40DB00D3186D
S11320001A685B6802F06CFD002306900791C64EC7
S11320102D11002D00D08CE0002B00D081E7169B01
S1132020002B00D191E0069A079B1092119310980F
S113203011990022BD4B01F077FD002800D184E006
S1132040002F00D181E00D9B002B3EDD10981199EB
S1132050039B00225E1EB64B02F042FD06900791E0
S11320600D9D0134200003F025FB069A079B02F026
S113207037FD0022AF4B01F0EFFD12901391129B3C
S1132080139CAD4A10931194139B9C181194002D2A
S11320905ED1069807990022A84B02F0A1FF109A7E
S11320A023000690079101F053FD002800D001E3BE
S11320B0A3481399844661440B0006980799109A23
S11320C001F032FD002800D0E8E2149B159C069331
S11320D007941B9B002B00DA57E1039A0E2A00DDBC
S11320E053E1904BD2009B185C681B6808930994D9
S11320F0239B002B00DBCEE0002F00DDCBE000D0E3
S1132100CFE20898099900228C4B02F0E9FC069A68
S1132110079B01F027FD3E000897002800D0A4E2A9
S11321200A9B0A9A5D1C31231370039B01330393AA
S11321309FE20122154205D0A4183268736802F0A8
S1132140CFFC01236D10083663E7039E3D0089E749
S11321500A9A691E521917920E9A724BC900002AE4
S11321604AD05B181A685B680020764902F084F84C
S1132170109A119B02F034FF0A9B10901191129354
S11321800698079903F062FA040003F093FA020038
S11321900B000698079902F023FF129B30345D1C54
S11321A01C70109A119B0690079101F0BDFC002849
S11321B065D1069A079B00205C4902F011FF109A32
S11321C0119B01F0B1FC002800D0BEE0179B9D429A
S11321D000D17AE7109811990022554B02F080FC47
S11321E000221090119106980799514B02F078FC47
S11321F0129506900791C3E7591808684968109A20
S1132200119B02F06DFC109011910A9C179D069889
S1132210079903F01BFA129003F04CFA02000B002A
S11322200698079902F0DCFE129B06900791303362
S11322302370179B01340022A34224D1414B1098F0
S1132240119901F009FD02000B000698079901F0AD
S11322507FFC002800D078E0109A119B00203949B7
S113226002F0BEFE02000B000698079901F05CFC28
S1132270002800D129E76B1E1A78302A01D0039672
S11322803FE01D00F7E706980799294B02F028FC68
S113229006900791BBE70A9E089A099B069807993E
S11322A001F0EAFF03F0D2F9040003F003FA089AFC
S11322B0099B02F015FC0B0002000698079902F036
S11322C08FFE2300303333700A9B751CEB1A9F4238
S11322D04CD102000B0001F0BFFC06000F0002000D
S11322E00B000898099901F01FFC00282CD10898CC
S11322F0099932003B0001F011FC002801D0E307EA
S113230022D40599049800F0E4FC00232B70039B6D
S1132310249A01331360269B002B00D175E21D60C3
S113232073E2C046405A0000185A00000000F03F13
S11323300000244000001C400000C0FC00001440C9
S11323400000C07C0000E03F039E6B1E1A78392A0F
S113235006D10A9A9A4207D130231370130001362A
S11323601A7801321A708AE71D00EEE70022CF4B7B
S113237002F0B6FB00220023069007912E0001F024
S1132380CDFB002800D187E7BBE70E9A002A00D1D5
S113239087E0229A012A6EDC189A002A67D0C44A80
S11323A09B18089D0B9C0B9A0121D2180B920C9A36
S11323B00498D3180C9300F02AFD0600002C0EDDBF
S11323C00C9B002B0BDD0C9A2300944200DD1300C0
S11323D00B9AE41AD21A0B920C9AD31A0C93089BF8
S11323E0002B1ED00E9B002B5FD0002D11DD310081
S11323F02A00049800F0A4FD059A01000600049840
S113240000F00EFD05991090049800F062FC109BFA
S11324100593089B5A1B04D00599049800F090FD7D
S113242005900121049800F0F2FC0F9B0890002B0A
S11324303DDD1A000100049800F082FD229B089003
S11324400025012B3BDC0025069BAB4233D1079BC7
S11324501B03AB422FD1199B079A13422BD00B9B22
S1132460013501330B930C9B01330C9323E036238A
S11324701A9A9B1A95E7089B7D1EAB4206DB5D1BEF
S1132480002F0BDA0B9BDC1B00238CE7089B0895C1
S1132490EA1A0F9B00259B180F93F1E70B9C3B0056
S11324A081E7089D0B9C0E9E88E7089AB4E7229B5F
S11324B00025012BC7DD0F9B0120002B0BD0089BAF
S11324C0089A1B690F9303339B00D318586800F0D4
S11324D055FC2023181A0C9BC0181F23184000D148
S11324E0ABE001331B1A042B00DC9BE01C23181AFD
S11324F00B9B24181B180B930C9B1B180C930B9B06
S1132500002B05DD1A000599049800F06BFD059079
S11325100C9B002B05DD1A000899049800F062FD5D
S11325200890169B002B00D189E00899059800F0CB
S1132530AAFD002800DB82E0039B0A22013B0393EF
S113254005990023049800F0DDFB0E9B0590002BF9
S113255000D15DE1002331000A22049800F0D2FB8F
S11325600D9B0600002B02DC229B022B6DDC002C51
S113257005DD31002200049800F034FD060030002F
S1132580002D11D07168049800F06BFB3100040039
S113259033690C319A1C92000C30FEF74BFC01227B
S11325A02100049800F01EFD0D9F0A9B013F0B9330
S11325B0DB19370006000F9308990598FFF7CAFA4C
S11325C039000D900400059800F05DFD32000E9076
S11325D00899049800F070FD01230C93C36830340B
S11325E00500002B04D10100059800F04CFD0C906F
S11325F02900049800F06DFB0C9B229A134300D031
S113260089E0069A0133134200D084E0392C00D1CA
S1132610A3E00E9B002B01DD0D9C31340B9B5D1C54
S11326201C7027E0042B00D169E70B9A1C33D218E5
S11326300B920C9AE418D31860E70300F5E7002F17
S11326403CDC229B022B39DD0D970D9B002B0CD11A
S113265008990522049800F055FB0890010005989C
S113266000F011FD002800DD5AE5239B0A9DDB43A1
S1132670039300270899049800F02BFB002E00D147
S11326803FE6002F05D0B74203D03900049800F08C
S113269020FB3100049800F01CFB32E608952E0064
S11326A0E3E7002308931E00DFE7C0460000244050
S11326B033040000039608952E0031E50E9B0D9718
S11326C0002B00D053E70A9D08990598FFF742FABA
S11326D00A9B30300D9A287001350400EB1A9A4297
S11326E078DC151E00DC012500270A9B5D1905997D
S11326F00122049800F076FC0899059000F0C3FCD0
S113270000282FDC01D1E3072CD46B1E1A78302A61
S1132710B0D11D00F9E70E9B002B07DB1D00229BA7
S11327201D4326D10123069A134222D10C9B002B70
S113273000DC73E705990122049800F053FC089922
S1132740059000F0A0FC002804DC00D066E7E30755
S113275000D463E7392C00D05EE70B9B0B9A5D1C19
S1132760392313706B1E1A78392A3BD001321A7040
S113277080E70B9B01330D930C9B002B05DD392C5B
S1132780EBD00D9D01340B9B4AE70B9B0F9A0D9DDB
S11327901C709342ABD000230A220599049800F0E0
S11327A0B1FA002305900A2239000498B74206D1F1
S11327B000F0A8FA070006000D9B0B93FCE600F05E
S11327C0A1FA3100070000230A22049800F09AFAC3
S11327D00600F1E700230A220599049800F092FA12
S11327E0059071E70A9A9A4205D1039B013303933A
S11327F0312313703EE71D00B4E70A4B269A0A936F
S1132800094B002A01D0269A13600A981DB0F0BD26
S11328100D9B002B00DD56E7229B022B00DC52E7C8
S113282013E7C046A8590000B0590000F7B58A89DB
S113283005000C00130760D44B68002B04DC0B6C00
S1132840002B01DC0020FEBDE76A002FFAD0002334
S11328502E682B6080235B011A4034D0606DA389FD
S11328605B0706D56368C01A636B002B01D0236C29
S1132870C01A0200216A00232800E76AB847A18928
S1132880431C06D12B681D2B31D82C4ADA40D307C0
S11328902DD50023636023692360CB0405D5431C35
S11328A002D12B68002B00D16065616B2E6000297A
S11328B0C8D023004433994202D0280000F0C2FC5F
S11328C000206063BFE70123216A2800B847431C46
S11328D0C5D12B68002BC2D01D2B01D0162B01D1E2
S11328E02E60AFE74023A2891343A381ABE74023C3
S11328F00B430120A3814042A5E70F69002FA1D01B
S11329000B680F60DB1B01930023920700D14B6916
S1132910A360019B002B00DC94E7019B3A00216A31
S11329202800A66AB047002803DC4023A289134389
S1132930DFE7019B3F181B1A0193EAE701004020DF
S11329400B6970B505000C00002B01D1002070BD8F
S1132950002804D08369002B01D100F05FF80B4BF1
S11329609C4209D16C680C22A35E002BEED021009E
S11329702800FFF75BFFEAE7054B9C4201D1AC68F6
S1132980F1E7044B9C42EED1EC68ECE7D859000027
S1132990F8590000B859000010B5024900F0B2F827
S11329A010BDC04641290000002310B50400036097
S11329B04360836081814366C281036143618361B3
S11329C0190008225C30FEF73EFA054B246263626C
S11329D0044BA362044BE362044B236310BDC04663
S11329E04136000069360000A1360000CD360000F3
S11329F070B568254A1E55430E002900743100F055
S1132A006BFC041E08D000212A00016046600C30D3
S1132A10A0606832FEF717FA200070BD836913B511
S1132A200400002B28D18364C3640365134B144A48
S1132A301B6882620193984201D1012383612000C3
S1132A4000F020F86060200000F01CF8A060200076
S1132A5000F018F80022E06004216068FFF7A4FF8A
S1132A6001220921A068FFF79FFF02221221E068DA
S1132A70FFF79AFF0123A36113BDC04670590000FC
S1132A8099290000F8B51E4B07001E68B369002B96
S1132A9002D13000FFF7C2FF4836B4687368013BC7
S1132AA004D53368002B07D03668F6E70C22A55E00
S1132AB0002D0DD06834F2E704213800FFF798FFA9
S1132AC030600028F0D10C2304003B602000F8BDE6
S1132AD0012320005B42E3810233A3816566256004
S1132AE0A560656025616561A561082229005C30E7
S1132AF0FEF7A9F96563A563A564E564E6E7C04646
S1132B0070590000F7B5040007000026019148340D
S1132B10002C01D13000FEBD6368A5680093009BC2
S1132B20013B009301D52468F2E7AB89012B08D956
S1132B300E22AB5E013304D029003800019B984774
S1132B4006436835EBE70000034B1B68186A00284E
S1132B5000D10248F03070470000002064000020DB
S1132B6070B50E001D000E23C95E90B0140000293C
S1132B7007DA00232B60B3891B0611D48023DB0002
S1132B800FE001AA00F0CEFD0028F2DBF022029B48
S1132B9012021340054A9B185A4253412B60EDE739
S1132BA040230020236010B070BDC04600E0FFFF4A
S1132BB0F7B502268B8905000C00334206D02300AA
S1132BC047332360236101236361F7BD01AB6A4688
S1132BD0FFF7C6FF00990700280000F07DFB0028DE
S1132BE008D10C22A35E9A05EFD4032293431E431B
S1132BF0A681E4E70F4BAB628023A28920601343D4
S1132C00A381009B20616361019B002B0DD00E23E7
S1132C10E15E280000F098FD002806D00322A38975
S1132C2093431A0001231343A381A0893843A0814D
S1132C30CBE7C0469929000010B5034B0100186882
S1132C4000F04AFB10BDC04600000020C9B2821843
S1132C50904201D10020704703788B42FBD00130B1
S1132C60F6E770B5466A04000D00002E07D1102067
S1132C70FFF7E2FF6062466086600660C660666ACF
S1132C80F368002B13D0636AAA00DB689B181868EA
S1132C90002818D101210E00AE40721D92002000C0
S1132CA000F0C2FA00280CD0456086600DE02122B5
S1132CB00421200000F0B8FA636AF060DB68002B9E
S1132CC0E1D1002070BD02681A6000230361C36073
S1132CD0F8E770B5446A06000D00002C07D11020F7
S1132CE0FFF7AAFF7062446084600460C460002D32
S1132CF007D0736A6A68DB6892009B181A682A60B6
S1132D001D6070BDF7B51E0014239C4607000C001F
S1132D1000200D698C44634619881B6851431B0CC1
S1132D20534389190E0C9B1989B21E0C1B045B18A2
S1132D306146013008C18C468542ECDC002E1BD074
S1132D40A3689D4212DB63683800591CFFF789FFB2
S1132D502100236901909A1C92000C310C30FEF77B
S1132D6069F821003800FFF7B4FF019C2B1D9B007C
S1132D70E31801355E6025612000FEBD0300020CEE
S1132D800020824201D11B0410301A0E01D10830F8
S1132D901B021A0F01D104301B019A0F01D102301A
S1132DA09B00002B03DB01305B0000D42020704724
S1132DB00722036810B501001A400DD00124002039
S1132DC0234205D10230034203D0E34020000B60CC
S1132DD010BD9B080B60FBE79CB21000002C01D1D6
S1132DE010201B0CDAB2002A01D108301B0A1A0782
S1132DF001D104301B099A0701D102309B08DA077C
S1132E00E8D45B0801D00130E4E72020E0E710B506
S1132E100C000121FFF725FF01234461036110BD6C
S1132E20F0B50B691500126989B00C00934201DA00
S1132E302C000D0027692E69A268BB1961680193F3
S1132E40934200DD0131FFF70CFF030014330093BC
S1132E50009ABB1994469B009C44130000220490E2
S1132E6063451CD32A001434BF00E3191432B6009E
S1132E700593931902940693069B9A4211D3019BDE
S1132E80002B06DD04235B429C4463461B68002B35
S1132E9051D0049B019A18001A6109B0F0BD04C313
S1132EA0DEE71488002C1ED00026009D029F01CF6F
S1132EB0079508CD039383B2634319006B46000C56
S1132EC09B896043CB1803999B19090C4118180C72
S1132ED009180E0C9BB209040B4307990B60059B60
S1132EE0BB42E4D82E6013681B0C03931ED000264B
S1132EF0009B029C1B68009807002188039D9BB2DD
S1132F00694320C82D0C49198E1931040B433B60C9
S1132F1008CC03991B0C4B437968360C89B25B18B7
S1132F2005999B191E0CA142E6D80360009B04324C
S1132F3004330093A0E7019B013B01939FE700004A
S1132F400323F7B5134005000E001400002B08D02E
S1132F502249013B9A00525800233100FFF7D2FE68
S1132F600600A310019336D06C6A002C07D1102000
S1132F70FFF762FE6862446084600460C4606F6A44
S1132F80BC68002C07D116492800FFF740FF002336
S1132F900400B86003600122019B13420AD031008F
S1132FA022002800FFF73CFF070031002800FFF74C
S1132FB090FE3E00019B5B1001930CD0206800281A
S1132FC007D1220021002800FFF72AFF00232060F8
S1132FD003600400DFE73000FEBDC046085B00006C
S1132FE071020000F0B50D0017002B69541185B073
S1132FF0E3180293013301934968AB680390019A83
S1133000934234DB0398FFF72CFE002302000600F2
S113301019001432A3422DDBE343DB171C402B00C1
S11330201F21A40014192A69143392009A180F401E
S113303024D00131C91B8C4600211868B8400143D3
S11330406046216002CB0434C1409A42F5D8216025
S1133050002902D0029B02330193019B0398013B98
S113306033612900FFF735FE300005B0F0BD0131B2
S11330705B00C4E7980011500133CBE702CB02C4D4
S11330809A42FBD8E9E70A69036930B59B1A0ED165
S113309092001430143184188918043C04392268CD
S11330A00D68AA4205D0AA42924101231343180095
S11330B030BDA042F1D3FAE7F0B50D0085B00700AA
S11330C0110028001400FFF7DEFF061E08D10100DE
S11330D03800FFF7C6FD01234661036105B0F0BD6A
S11330E001230193002804DB23002C001D0000238E
S11330F0019361683800FFF7B4FD2F000022019BA3
S11331002669C3601434B300E31802932B6914379F
S11331109B00FB18039303009446143320CC04CF84
S11331200192AAB294446A46614692882D0C8A1A86
S11331300199090C691A151449190D1492B209045C
S11331400A431A60039AAC460433BA42E6D8029999
S11331501A008C4205D3043A1368002B0ED0066182
S1133160BCE704CC91B261440D14120C521915142D
S113317089B212040A43AC4604C3E8E7013EEAE715
S1133180F7B51D000121089F1400FFF76AFD2B030A
S11331906D0006001B0B6D0D24D10193002C27D06C
S11331A068460094FFF704FE009C00281ED0019B93
S11331B020211A00091A8A40C340224372610193F4
S11331C0019CB461631E9C4101343461002D18D00C
S11331D0124BED1835232D183D60181A099B186001
S11331E03000FEBD802252031343D6E77461E7E743
S11331F001A8FFF7DDFD0124019B346173612030D8
S1133200E4E7074BC018074B3860E3189B00F3183A
S11332105869FFF7B3FD6401201ADFE7CDFBFFFF18
S1133220CEFBFFFFFFFFFF3F4A4370B511001400C0
S113323000F052F8051E03D022000021FDF703FE22
S1133240280070BD70B50500002910D00C1F23683C
S1133250002B00DAE418280000F0AEFA1D4A1368C7
S1133260002B05D163601460280000F0A6FA70BD3D
S1133270A34209D9216860188342F3D118685B68B6
S113328041182160EEE713005A68002A01D0A242D7
S1133290F9D919685818A0420BD120680918581890
S11332A019608242E0D110685268411819605A606E
S11332B0DAE7A04202D90C232B60D5E72168601815
S11332C0824203D1106852684118216062605C60D8
S11332D0CAE7C046F8010020032370B5CD1C9D4306
S11332E0083506000C2D1ED20C25A9421DD830002D
S11332F000F062FA254A14682100002919D1244CEF
S11333002368002B03D1300000F088F920602900E5
S1133310300000F083F9431C2CD10C2330003360BF
S113332000F04BFA03E0002DDFDA0C2333600020B9
S113333070BD0B685B1B1AD40B2B03D90B60CC1824
S1133340256003E08C420ED163681360300000F006
S113335034FA200007220B30231D9043C31AE7D010
S11333605A42E250E4E74B6863600C00EEE70C005D
S11333704968C2E70323C41C9C43A042E0D0211A3D
S1133380300000F04BF9431CDAD1C6E7F801002005
S1133390FC010020936810B5013B9360002B05DA13
S11333A09469A34208DBCBB20A2B05D01368581CDE
S11333B010601970C8B210BDFEF700FBFBE7F8B54A
S11333C006000F001400D518AC4201D1002007E01C
S11333D021783A003000FFF7DDFF0134431CF3D1BC
S11333E0F8BD0000F0B59FB006000F00140005936F
S11333F0002804D08369002B01D1FFF70FFB7F4B1A
S11334009F425CD17768BB891B0762D53B69002B5F
S11334105FD0002306AD6B6120336B761033AB763F
S11334200294029C2378002B5DD1029BE31A04933F
S11334300DD0049B029A39003000FFF7C0FF431CF3
S113344000D1CCE06A69049B944663446B612378A1
S1133450002B00D1C3E00122002352426A6002A97A
S11334605432521801342B60EB60AB601370AB65BF
S1133470217805226248FFF7E9FB631C9C4600287B
S113348035D12968CB0604D5532302AA20309B18D2
S113349018700B0704D553232B2002AA9B1818700D
S11334A023782A2B2CD000200A21099B2278303A39
S11334B0092A00D86BE000282AD0099328E0514B50
S11334C09F4201D1B7689EE74F4B9F429BD1F7685B
S11334D099E739003000FEF7C7FA002899D0012097
S11334E040421FB0F0BD252B9FD001349AE7444BD6
S11334F02968C01A012383400B432B606446B7E755
S1133500059B181D1B680590002B3ADB0993644644
S113351023782E2B0BD16378621C2A2B3FD1059B79
S113352002341A1D1B680592002B35DB07932178A2
S113353003223648FFF78AFB002807D0334B2A685A
S1133540C01A4023834013432B6001342178631C49
S113355006222F4802932976FFF778FB002844D0EF
S11335602C4B002B2FD12968059B0722C90528D590
S11335709B189343083305936B69039A9B186B61FB
S11335804FE75B42EB6002230B432B60BFE74B43E7
S113359001349B18012089E701235B42C6E700231D
S11335A014000A201A006B6021783039092903D9E4
S11335B0002BBCD00792BAE74243013452180123CE
S11335C0F2E70733D5E705AB00933A00124B290025
S11335D03000FDF7DDFC0390039B0133CCD1BB89A4
S11335E05B0600D57BE70B987BE705AB00933A00BD
S11335F0094B29003000FDF785FFECE7D85900009E
S1133600145B0000F8590000B85900001A5B000070
S11336101E5B0000910F0000BF330000002370B553
S1133620064C050008002360FDF7A0F8431C03D1F5
S11336302368002B00D02B6070BDC0461002002010
S113364070B50C000E25495F00F0B8F8002803DBC4
S1133650636D1B18636570BDA389024A1340A3817F
S1133660F9E7C046FFEFFFFFF8B51F008B8905009F
S11336700C001600DB0505D50E23C95E00220223CB
S113368000F074F8A389054A28001340A38132008E
S11336900E23E15E3B0000F01FF8F8BDFFEFFFFFD3
S11336A070B50C000E25495F00F060F8A389421C38
S11336B003D1054A1340A38170BD802252011343F4
S11336C0A3816065F8E7C046FFEFFFFF10B50E2346
S11336D0C95E00F015F810BD70B5050008001100B2
S11336E00022064C22601A00FDF722FB431C03D182
S11336F02368002B00D02B6070BDC0461002002050
S1133700002370B5064C050008002360FDF740F85F
S1133710431C03D12368002B00D02B6070BDC0462E
S113372010020020002370B5064C050008001100AB
S11337302360FDF730F8431C03D12368002B00D02D
S11337402B6070BD10020020002370B5064C0500EC
S113375008002360FDF724F8431C03D12368002BE1
S113376000D02B6070BDC0461002002070B505006B
S1133770080011000022064C22601A00FDF712F81E
S1133780431C03D12368002B00D02B6070BDC046BE
S11337901002002082B0002900D101A9101E06D019
S11337A0002B06D013780B601078431E984102B0AA
S11337B0704702204042FAE77047704770B5050031
S11337C0080011000022064C22601A00FDF79CFA42
S11337D0431C03D12368002B00D02B6070BDC0466E
S11337E0100200200B1E04D0FF2A04D98A23036090
S11337F08B3B180070470A700123FAE702B4714644
S113380049084900095C49008E4402BC7047C0461F
S1133810002243088B4274D303098B425FD3030A0B
S11338208B4244D3030B8B4228D3030C8B420DD31E
S1133830FF22090212BA030C8B4202D312120902AC
S113384065D0030B8B4219D300E0090AC30B8B42EA
S113385001D3CB03C01A5241830B8B4201D38B0398
S1133860C01A5241430B8B4201D34B03C01A52413D
S1133870030B8B4201D30B03C01A5241C30A8B4280
S113388001D3CB02C01A5241830A8B4201D38B026B
S1133890C01A5241430A8B4201D34B02C01A52410F
S11338A0030A8B4201D30B02C01A5241CDD2C30981
S11338B08B4201D3CB01C01A524183098B4201D3FD
S11338C08B01C01A524143098B4201D34B01C01AE8
S11338D0524103098B4201D30B01C01A5241C30860
S11338E08B4201D3CB00C01A524183088B4201D3CF
S11338F08B00C01A524143088B4201D34B00C01ABB
S11339005241411A00D20146524110467047FFE726
S113391001B5002000F0F0F802BDC0460029F7D040
S113392076E7704703460B437FD4002243088B425B
S113393074D303098B425FD3030A8B4244D3030B32
S11339408B4228D3030C8B420DD3FF22090212BAF7
S1133950030C8B4202D31212090265D0030B8B4273
S113396019D300E0090AC30B8B4201D3CB03C01A5D
S11339705241830B8B4201D38B03C01A5241430B38
S11339808B4201D34B03C01A5241030B8B4201D328
S11339900B03C01A5241C30A8B4201D3CB02C01A93
S11339A05241830A8B4201D38B02C01A5241430A0B
S11339B08B4201D34B02C01A5241030A8B4201D3FA
S11339C00B02C01A5241CDD2C3098B4201D3CB01A1
S11339D0C01A524183098B4201D38B01C01A524150
S11339E043098B4201D34B01C01A524103098B4254
S11339F001D30B01C01A5241C3088B4201D3CB003F
S1133A00C01A524183088B4201D38B00C01A524121
S1133A1043088B4201D34B00C01A5241411A00D2D1
S1133A2001465241104670475DE0CA0F00D049423A
S1133A30031000D34042534000229C4603098B42AA
S1133A402DD3030A8B4212D3FC22890112BA030A32
S1133A508B420CD3890192118B4208D389019211B4
S1133A608B4204D389013AD0921100E08909C30939
S1133A708B4201D3CB01C01A524183098B4201D33B
S1133A808B01C01A524143098B4201D34B01C01A26
S1133A90524103098B4201D30B01C01A5241C3089E
S1133AA08B4201D3CB00C01A524183088B4201D30D
S1133AB08B00C01A5241D9D243088B4201D34B0028
S1133AC0C01A5241411A00D20146634652415B106A
S1133AD0104601D34042002B00D54942704763464B
S1133AE05B1000D3404201B5002000F005F802BD90
S1133AF00029F8D016E770477047C0468446101C6A
S1133B0062468C46191C634600E0C0461FB500F0AF
S1133B1085FF002801D40021C8421FBD10B500F064
S1133B20DFFE4042013010BD10B500F077FF0028E1
S1133B3001DB002010BD012010BDC04610B500F00F
S1133B406DFF002801DD002010BD012010BDC0461E
S1133B5010B500F0FFFE002801DC002010BD01209C
S1133B6010BDC04610B500F0F5FE002801DA0020B3
S1133B7010BD012010BDC04641024300C20F490AD6
S1133B801B0E00207E2B0DDD9D2B0CDC8020000401
S1133B900143952B0ADC9620C31AD9404842002AD7
S1133BA000D108007047034BD018FBE7963B9940BF
S1133BB0F4E7C046FFFFFF7F70B5002830D0C3177D
S1133BC0C4185C40C50F200001F0EEFD9E231B1AB3
S1133BD0962B0DDC9622D21A94402A006402640AC1
S1133BE0DBB26402DB05600AD2071843104370BDE0
S1133BF0992B19DC9922D21A002A29DD944022003B
S1133C00144C1440510704D00F210A40042A00D058
S1133C100434620113D4A401640ADBB22A00E0E78D
S1133C20002200230024DCE705222100121AD140DF
S1133C30B922D21A9440621E94410C43DAE7054B30
S1133C402A001C409F23A4011B1A640ADBB2C8E7A4
S1133C502200D5E7FFFFFFFBF8B54546DE46574691
S1133C604E460C03E0B54E00C90F88460D00610AAC
S1133C70440F0C43C70019035800DB0F9B464B0A43
S1133C80510F0B43760D400D1900D200D84500D1D9
S1133C90AEE0351A002D00DCF6E000280FD1134306
S1133CA000D1DBE06B1E002B00D037E1BA1A97423B
S1133CB0BF41641A7F42E41B0126170024E0C64B6F
S1133CC09E424DD080231B041943382D00DD07E1AB
S1133CD01F2D00DD38E12020431B9A460B0050467F
S1133CE08340994613004846EB401843030050466E
S1133CF08240501E8241E9401A43BA1A611A97421F
S1133D00A441170064420C1B230262D56402650AB5
S1133D10002D00D1DFE0280001F046FD0300083B40
S1133D201F2B00DDD2E020223C00D21A9D40D4405B
S1133D309F4025439E4200DDC4E09E1B731C1F2B45
S1133D4000DDF1E0202238002900D21AD840914049
S1133D5097402C000143781E8741DC4000260F4326
S1133D607B0709D00F233B40042B05D03B1DBB42EE
S1133D70BF417F42E4191F0023022CD5964B013624
S1133D809E4200D19AE04546944BFF081C406007D0
S1133D90760564020743240B760D00212403230BCC
S1133DA00C0D8F4A24051C431440330523435B0048
S1133DB0ED075B082B43380019003CBC904699463C
S1133DC0A246AB46F8BD6446044300D111E20400A8
S1133DD067467B07C6D145466007FF080743E408EA
S1133DE07D4B9E4230D024037605240B760DD4E718
S1133DF0331A9A46002B78DD002831D07648864263
S1133E00AED08020000401435346382B00DCE9E0A7
S1133E100A43511E8A410021D219BA42BF410919ED
S1133E207C4217000C192302D3D56B4B01369E42FA
S1133E3000D13AE10120694B1C407B0807401F4335
S1133E40E007074364088BE723003B4300D1CBE141
S1133E508022120314432403240B9EE72E007FE7E1
S1133E600800104300D1B4E0581E002800D0DEE062
S1133E70BA18BA429B4164185B42E4181700012641
S1133E802302A6D50226D5E7002D6ED1701C40056D
S1133E90400D012800DCF9E0B81A844687428041CD
S1133EA0E51A40422D1A280200D489E0D71BBA42F1
S1133EB092411C1B5242A51AD84629E745460024C4
S1133EC000276AE7454CF61A2C4049E73D0028389C
S1133ED0854000272EE7380001F066FC20301DE7FE
S1133EE00A43511E8A41002107E7002B00D0F3E06A
S1133EF0701C43055B0D012B00DCADE0364B984292
S1133F0000D1D1E0BA18BA42BF4164187F42E41923
S1133F10E707520817436408060021E72E48854244
S1133F2000D193E01D00D0E629001F3EF140202B74
S1133F3000D18DE04022D31A9D402F437D1EAF4116
S1133F4000240F43002644E72B000800203BD84000
S1133F500300202D00D17DE04020451BA9400A43E9
S1133F60511E8A4100211A43C7E6002E50D01A4E32
S1133F70B04257D080266B429946360434434B46B0
S1133F80382B00DDD6E01F2B00DD35E12026F51AA5
S1133F902600AE40B2463E00DE40AC4635005646F2
S1133FA02E436546AF407D1EAF41DC403743D71BEF
S1133FB0BA4292410C1B5242A41A0600D846A3E608
S1133FC0644667462C4300D0A2E60025002600275D
S1133FD006E71E00C4E6C046FF070000FFFF7FFFA0
S1133FE0FFFF0F801F2B63DC2020C31A08009840BA
S1133FF09C46834653461000D84003005846184355
S113400063469A40531E9A4153460243D94003E7FC
S113401026003E4306D0EB439946002BC7D0944E6E
S1134020B042ACD10C0017000600D84698E6904B7D
S11340309A450BD08246E7E6002800D09EE018009F
S1134040104300D1E9E01C001700D846884E87E6EB
S1134050002572E7002182E723003B43002E00D0B5
S1134060ABE0002B00D1E7E00B00134300D177E66F
S1134070BA18BA42BF4164187F42E419230200D43B
S1134080F2E07C4B17001C40060069E62000384330
S1134090002ED1D100285BD11C00144300D1A8E02C
S11340A01C001700D8465BE606000024002797E6AC
S11340B050460B002038C34099465346202B00D16C
S11340C095E0402350461B1A99400A43511E8A41E9
S11340D04B4600211A439FE6002E30D126003E4372
S11340E067D0DB439A46002B1CD0614EB04260D0AF
S11340F05346382B00DD96E01F2B00DD9FE0202681
S1134100F31A26009E409C46B34653463E00DE40CA
S113411033005E461E4363469F407B1E9F415346C9
S1134120DC403743BF189742924164185242A418A6
S1134130060078E627437C1EA741002437E74C4E4F
S1134140B04236D080265B4236049A463443CFE7E9
S11341501800104300D103E6B81A84466745AD4100
S1134160E01A6D42401B050200D42CE6D71BBA426C
S113417092411C1B5242A41AD846F1E51800104380
S113418000D163E7F808670707438020E4080003C9
S1134190044208D0DD08054205D1D208590711436D
S11341A00F002C00D8467B0FE4001C43FF00304E68
S11341B0D6E50C0017000600D2E5002B38D00B0022
S11341C0134300D142E7F808670707438020E40857
S11341D000030442E7D0CB080342E4D1D2084907E4
S11341E011430F001C00DEE700270024D5E5002161
S11341F06BE700250027F3E54E462500203EF540F9
S11342004B462E00202B2DD04025ED1AAC402743E1
S11342107C1EA74100243743C9E6802400252403DB
S1134220134E0027DCE527437C1EA741002479E7D1
S11342300C0017000E4E93E50C00170090E556464F
S11342402300203EF34099465346202B0ED04023B2
S113425056469B1B9C4027437C1EA7414B4600248B
S11342601F435FE70024D2E71700B2E50024F2E71A
S1134270FF070000FFFF7FFFF0B557464546DE46C7
S11342804E46E0B54C000E0387B0834692461D00AF
S11342908046360B640DCF0F002C4FD06F4B9C42E1
S11342A035D08023420F1B04F60013433343994651
S11342B0C30098466A4B00269C460023644403933B
S11342C02B031B0B9B466B00ED0F50465B0D0195BA
S11342D05ED0624A934253D05A46D1008022400FA6
S11342E0120402430A4393465246D1005C4A944660
S11342F0002263443800684084460290E41A16435E
S11343000F2E00D9B4E0574BB6009B599F460300CB
S1134310334399466CD1002398460233082603930D
S1134320CEE7CB464146039A0197022A65D1019B09
S11343304A4C9C460023002298466BE0030033431A
S113434099464ED0002E00D1BCE1300001F02CFA89
S113435003000B3B1C2B00DDACE11D22D31A5A4693
S11343600100DA4008398E401300334399465B4616
S11343708B40984600233C4C0026241A03939FE765
S113438051465A46114329D1002293460232B1E7DD
S1134390594601431ED05B46002B00D19EE158468E
S11343A001F002FA03000B3B1C2B00DD8FE102003D
S11343B05946083A91408B461D21CB1A5146D940A3
S11343C00B0059460B4351469B469140264B002215
S11343D01B1A8FE7002301229B468BE751460322D9
S11343E088E700239846013304260024039367E7F3
S11343F00323B14603930C2662E7032A00D15CE24F
S1134400019B012A00D0E4E113409C4600230024D0
S11344100022984600211203130B0A0D12051A43B9
S11344202305124C40462240134362465B00D207E8
S11344305B081343190007B03CBC90469946A2465A
S1134440AB46F0BD002380229C4612039846034CE1
S1134450E0E70023014C00229846DBE7FF07000059
S113446001FCFFFF305C00000DFCFFFFFFFF0F802D
S1134470D94500D939E100D134E1002346464D46FF
S11344809A46013C5B460A0E1B021A430B02170CA8
S1134490039313041B0C3900280090460193FFF783
S11344A0B7F90200019B83465A432800390091461C
S11344B0FFF734FA350C09040D43A9450DD95B46C1
S11344C04544013BA84500D93AE1A94500D837E164
S11344D002235B429C464544E3444B46EB1A3900B5
S11344E018000493FFF794F9019B05004343390036
S11344F004989946FFF712FA330409041B0C0B4382
S1134500994509D943446A1E984500D91AE1994549
S113451000D817E1023D43444A469B1A5A46120406
S11345202A4303999346100C0A0C914609045A46EF
S1134530090C4E460D001204120C454305915143DB
S11345407243704352190E0CB218954203D9802558
S11345506D02AC466044150C09041204090C2818B9
S11345605218834200D2CEE000D1C8E01D1A53464F
S11345709E1AB24592415242AB1A9A46984500D1CE
S113458017E139001800FFF743F9019B0500434385
S1134590390050460493FFF7C1F904980B04310C19
S11345A01943884209D941446B1E884500D907E163
S11345B0884200D804E1023D4144049BCB1A180010
S11345C039000493FFF724F9019B824643433900E1
S11345D004980193FFF7A2F901980B043104090C24
S11345E0194388420DD953464144013B884500D9BB
S11345F0E8E0884200D8E5E002235B429C4641445F
S1134600E244019B2D04CE1A51462943059D4F4691
S11346102A000B04080C1B0C5A4345437B43784384
S11346205B19170CFB189D4203D980256D02AC461B
S113463060441D0C12041B04120C28189B1886429B
S113464000D293E000D18EE001231943A04BE3187C
S1134650002B00DC99E04A0700D09EE05A46D201C4
S113466006D55A469B4B1A4080239346DB00E31839
S1134670994A934268DD0123029A984C1A40002318
S1134680944698460022C5E680224B461203134204
S11346900AD05B46134206D11A431203120BAC46EE
S11346A088468E4CB6E64B461A431203120BBC46A0
S11346B08A4CAFE603005A46283B9A4000239146B1
S11346C0984657E6584601F06FF8203040E603005C
S11346D05246283B9A400021934677E601F064F85D
S11346E020305FE6884500D2C7E64B46DE075D080A
S11346F043465B081E434346DB079A46C2E6002551
S1134700924500D333E7039E5946B446E244B2458A
S1134710AD416D424544EB180139984507D29842A2
S113472000D97FE000D1BCE01D1A8B461FE79845F5
S1134730FAD1039D5545F2D943468B461D1A16E717
S11347409B46CAE61500E7E65A46C90852070A43DB
S11347505B0590465C0D5A460123029952021940AA
S1134760120B8C4656E6002B00D16FE746444A1ED6
S1134770B04529D91100864200D065E7039A9342D7
S113478000D061E762E7012149420120C21A382AB8
S113479021DD029B03409C4638E60F220A40042A8E
S11347A000D15BE70A00111D9142924152429344A9
S11347B054E7474BE318002BE5DD01225242F2E7B0
S11347C01D00FAE69A461CE7B04239D86ED01100B3
S11347D03AE702933AE71F2A3CDC20239B1A0C0099
S11347E05846994098404B1E99415B46D440D3406B
S11347F0204308431A00430709D00F230340042B26
S113480005D00100081D88429B415B42D218130267
S11348103AD50123029A01241A400023944698466B
S11348200022F7E5022149428C46039DE344AC464D
S1134830E244AA45AD416D424544ED182D1A96E671
S11348408A1E03994D008D4289414942414476189C
S113485003958FE71F204042C31A5846D8400300EF
S1134860202A28D040205D46821A954029434A1EBA
S113487091411943072300220B4009D00F23002242
S11348800B400800042BBDD1010053075202120B48
S1134890C9081943012388460299002419408C460B
S11348A0B8E55245BED88B46002560E6039D9D427F
S11348B0C6D3110062E70025D8E780225B461203C5
S11348C01A43019B1203120B9C468846034CA1E534
S11348D0FF030000FFFFFFFEFE070000FF070000CC
S11348E0F0B54F464646D6465C00C0B51F03DB0F05
S11348F09A46174B0E034D0084468046360B6D0DC9
S1134900C90F91463F0B640D01209D4208D09C4283
S113491001D0A5420BD01CBC90469946A246F0BDDE
S113492063463343F7D1AC42F5D13A43F3D1012086
S1134930BE42F0D1C845EED1514507D0002DEAD191
S113494063461E433000461EB041E4E70020E2E720
S1134950FF070000F0B54546DE4657464E46E0B533
S11349601F033D0B2C4F0E034C00AB465D008446E9
S1134970360B640DC90F90466D0DDB0FBC422AD077
S1134980254FBD422DD0002C0FD130430700814666
S113499078427841C0B2002D17D15F463A4314D112
S11349A04B460020002B0AD006E0002D02D15846C9
S11349B0024301D0994218D04842012108433CBC2B
S11349C090469946A246AB46F0BD0028F2D001209D
S11349D0013B1843F3E737000743D1D0022040429C
S11349E0EDE75F461743CED0F8E7AC42E4DC03DAE8
S11349F0481E01210843E2E75E45DDD806D00020C9
S1134A005E45DCD20123481E1843D8E7C445D3D8F9
S1134A100020C445F6D3D2E7FF070000F0B54E46A8
S1134A204546DE4657465C00E0B51F03DB0F99465A
S1134A302A4B0E034D00C90F8446360B6D0D8B4671
S1134A4090463F0B640D9D4220D0244B9C4222D0C3
S1134A50002D12D1304343424341DBB2002C1FD01E
S1134A60002B0CD04B460120013B034318003CBCF7
S1134A7090469946A246AB46F0BD002C16D0CB45D5
S1134A8017D05B46594201230B43EFE73100022361
S1134A900143EBD1D9E7390002231143E6D1D7E72B
S1134AA03A43DDD100230028E0D0EAE73A43E6D1D7
S1134AB0E7E7A542E5DC05DBBE42E2D807D00023E8
S1134AC0BE42D3D25946012301390B43CEE7C44534
S1134AD0D7D80023C445F5D3C8E7C046FF07000074
S1134AE0F0B557464546DE464E46E0B50C039846BB
S1134AF04E00230B87B0070092469B46760DCD0FE0
S1134B00002E6BD06D4B9E4235D080245B46420F05
S1134B102404DB0014431C43C3009946684BA3469A
S1134B209C46002300276644029343461C035A0014
S1134B30DB0F5046240B520D984600D176E05F4BB4
S1134B409A426DD08023410F1B040B435C49E4005F
S1134B508C461C43C300002062444146B618694099
S1134B60721C0191944607430F2F00D9B0E0554AB7
S1134B70BF00D25997465B460343994600D087E06D
S1134B8000239B46023308270293CEE74246019254
S1134B90022867D0032800D10EE2012800D062E188
S1134BA0002300240022994601990140CDB200213E
S1134BB012030B0D120B1B051343434A2405134028
S1134BC01C436400ED0764082C434846210007B0E9
S1134BD03CBC90469946A246AB46F0BD0343994679
S1134BE04FD05B46002B00D189E1584600F0DCFD34
S1134BF003000B3B1C2B00DD7AE11D22D31A3A0083
S1134C0001005C46DA4008398C4013008F4023438E
S1134C109B46B94600232D4E0027361A029384E79B
S1134C20534623432AD10024022096E753462343C4
S1134C3020D0002C00D157E1200000F0B5FD030086
S1134C400B3B1C2B00DD49E11D21CB1A5146020010
S1134C50D9405346083A944093400C431B4A121AD5
S1134C6000207AE70125019B144C1D4000230022FB
S1134C7099469CE70024002201206EE75346032056
S1134C806BE700239B4601330427002602934CE77D
S1134C90032381460C27029347E780220023002543
S1134CA012039946054C82E75C464B4602986FE72F
S1134CB05C464B46019502986AE7C046FF07000030
S1134CC001FCFFFF705C0000FFFF0F800DFCFFFF85
S1134CD04A464946170C1A0C1B041B0C08041900FD
S1134CE0000C41431500884619007D437943039520
S1134CF089462900150045434D44029545462D0C2F
S1134D00AA46029D5544A94506D98A4680214902EE
S1134D108946CA4451460391290C04914146090429
S1134D202D04090C88462900250C24044144240C34
S1134D300591210041438846210079438A4668430E
S1134D40414650448146080C48446F43824503D988
S1134D508021490289464F44010C8946390049445F
S1134D60029141460F0404993F0C88460004C0197F
S1134D7080444146049159460F0C0904090C8846A5
S1134D8059438A4639005143894641464A4351466C
S1134D90090C8B467B43D2185A44934203D980238F
S1134DA05B029B46D94451460904090C8A46414694
S1134DB061437C43130C12044B445244A1468A467B
S1134DC03C0041466C434D4351464D440F0C7D1904
S1134DD0A94503D98021490288464444049F039984
S1134DE0B84641448B4683458041414288465146FA
S1134DF008042F04000C3F185846029910188946DD
S1134E00904292414F44BA46524299469346C24414
S1134E10D144CB448F42BF41C245894199459B410E
S1134E20934592417F4249422D0C52420F435B42CB
S1134E3013437F19FF185B463C19DB0D059A640286
S1134E401C43430213435D1EAB415A46C00D03434A
S1134E5052021343E20156D501205A08034013437A
S1134E60E207134364085A48604400284DDD5A079A
S1134E7009D00F221A40042A05D01A1D9A429B41D8
S1134E805B42E4181300E20104D58020514AC000BB
S1134E9014406044504A904200DDE3E60125DB08FB
S1134EA062071A436402019B9146220B4405640D78
S1134EB01D407CE6802259461203114208D0144258
S1134EC006D122431203120B45469946434C6EE623
S1134ED05B461A431203120B404C68E60300544627
S1134EE0283B9C400023B9E600F05EFC2030A6E697
S1134EF00300283B9F400023BB4699468AE600F006
S1134F0053FC203074E6B446ADE701252A1A382A4A
S1134F1006DD019B00241D4000230022994646E63D
S1134F201F2A21DC20252000AD1A1E00AB40A8401A
S1134F30D6405D1EAB4130431843D440430709D0EB
S1134F400F230340042B05D00300181D98429B41F6
S1134F505B42E418230221D50125019B01241D4055
S1134F6000230022994622E61F2521006D42281ABB
S1134F70C1400800202A1DD05F35AA1A944023435B
S1134F805C1EA341072503431D400022002D09D0C8
S1134F900F2200241A401800042AD6D10300650702
S1134FA06402220BDB082B4301259946019B002454
S1134FB01D40FCE50024E2E7802201251203224380
S1134FC001991203120B0D409946044CEFE5C046BB
S1134FD0FF030000FFFFFFFEFE070000FF070000C5
S1134FE0F0B54646D6464F460C03C0B5CD0F4E002D
S1134FF0610A440F0C43C1005800400D84468A46A0
S11350000F001903500F490A0143C648760DA846FC
S1135010DB0FD200844500D1D8E001204340AB42ED
S113502000D1A6E06046351A002D00DC05E1002819
S113503010D10B00134300D1D7E06B1E002B00D01E
S11350404BE153469F1ABA458041641A4042241AE0
S113505001261EE0B34B9E4248D080231B04194313
S1135060382D00DD19E11F2D00DD4CE120230F0058
S11350705B1B10009A409F40E840531E9A41E94050
S1135080074317435346DF1B611ABA45A4416442E0
S11350900C1B230200D4C5E06402650A002D00D174
S11350A0F6E0280000F080FB0300083B1F2B00DD26
S11350B0E9E020223C00D21A9D40D4409F40254381
S11350C09E4200DDDBE09E1B731C1F2B00DD0AE10A
S11350D020223800D21A290097402C009140D84051
S11350E07A1E9741DC40002601430F437B0709D019
S11350F00F233B40042B05D03B1DBB42BF417F42E5
S1135100E4191F00230225D5864B01369E4200D1A7
S1135110AFE0854B01251C4043466207FF0864024B
S113512076051743240B760D1D4000212403230B21
S11351300C0D7E4A24051C431440330523435B00B5
S1135140ED075B082B43380019001CBC90469946B8
S1135150A246F0BD012543466207FF081743E40851
S11351601D40704B9E4236D024037605240B760DE9
S1135170DBE76346F31A002B00DC94E0604600286A
S113518035D068488642B1D080273F043943382B54
S113519000DCFDE00A43170000217A1E97415744C2
S11351A057458041091944420C1923023AD55D4BF5
S11351B001369E4200D14BE101225B4B1C407B082F
S11351C017401F43E207174364088FE708001043A2
S11351D000D024E721E723003B4300D1B9E180223A
S11351E0120314432403240B9FE72E007EE70800D8
S11351F0104300D1CAE0581E8446002800D0E7E0DE
S11352005244524580416418404224181700012634
S1135210230207D50226CFE764462C4300D1B3E12D
S11352202C0067467B0700D062E76307FF081F4333
S113523001254346E4081D4093E7002D78D1751CF1
S11352406D056D0D012D00DCF2E05046801A82459B
S1135250BF41651A7F42ED1B8446280200D48CE0CE
S11352605046171ABA4292410C1B5542651B984688
S113527014E70125434600241D40002755E72A4C26
S1135280F61A2C4032E73D0028388540002717E7FE
S1135290380000F089FA203006E70A43170000219D
S11352A07A1E9741EEE6002B00D0E5E0731C9C4685
S11352B05B055B0D012B00DC9FE01A4B9C4500D184
S11352C0C5E0524452458041641840422418E7071F
S11352D0520817436408664608E71248854200D11D
S11352E085E01D00BCE629001F3EF140202B00D1C3
S11352F07FE04022D31A9D402F437D1EAF410024FE
S11353000F4300268EE72B000F00203BDF40202DAB
S113531071D040235D1BA9400A43511E8A410021DC
S11353201743AFE6FF070000FFFF7FFFFFFF0F807B
S1135330002E3ED0B34EB44545D0802636046D428F
S11353403443382D00DDA8E01F2D00DD1FE12026A9
S113535027005046761BB740E84007435046B0400C
S1135360461EB041EC403843171ABA4292410C1B16
S11353705242A41A664698468BE6644667462C4316
S113538000D08BE6002500260027EAE61E00ADE6E5
S11353901F2B60DC2027F81A0F008446874010007A
S11353A0D840074360468240501E8241D94017438B
S11353B0F5E626005046064305D0ED43002DD3D034
S11353C0904EB445BDD10C001700664698468DE654
S11353D08C4883420BD06346D9E6002D00D096E07A
S11353E00800104300D1E2E00C0017009846854EF7
S11353F07CE6002580E700218EE723005046034326
S1135400002E00D0A8E0002B00D1DEE00B001343F7
S113541000D16BE65244524580416418404224183E
S11354201700230200D4FDE6774B66461C405DE678
S1135430250050460543002ECFD1002D4FD10C003E
S1135440144300D1A0E00C00170098464EE66646CF
S11354500024002785E61F000800203FF8400700CD
S1135460202B00D18EE04020C31A99400A43511EDC
S11354708A410021174392E6002E14D1260050469B
S1135480064362D0DB43002B5CD1871897429241DC
S113549064185242A418664687E650462043441EC8
S11354A0A041002460E7574EB4454ED08026360410
S11354B05B423443382B00DD7FE01F2B00DD8BE0A3
S11354C0202627005046F61AB740D84007435046D6
S11354D0B040461EB0410743DC40BF18D6E70D007C
S11354E0154300D102E65046801A8245BF41651A31
S11354F07F42ED1B8446280200D48DE65046171ADD
S1135500BA4292410C1B5242A41A9846EEE50D0091
S1135510154300D16BE750466707C0080743802056
S1135520E4080003044207D0CD08054204D12C004E
S11355309846D70849070F437B0FE4001C43FF003C
S1135540304ED3E52F4EB445B4D10C001700664657
S1135550CCE500270024E8E5002B39D00B001343E9
S113556000D144E7C008670707438020E40800032C
S11355700442E1D0CB080342DED1D70849070F43E8
S11355801C00D9E7002171E700250027E9E52E007A
S11355902700203EF740202D2FD04026751BAC401D
S11355A050462043441EA04100243843DCE68024B6
S11355B000252403134E0027D3E55046204307005B
S11355C0781E87410024BF1860E70C0017008DE5A2
S11355D00C0017000B4E89E51E002700203EF74003
S11355E0202B0CD04026F31A9C4050462043441EE6
S11355F0A04107430024BF1848E70024D0E7002453
S1135600F3E7C046FF070000FFFF7FFF70B50E4EB3
S11356100D031C0349005B002D0B490D240B5B0D8E
S1135620B14204D0084900208B4208D070BD054324
S11356300120002DFAD1044900208B42F6D11443F5
S11356402000441EA041F1E7FF07000030B5134DD0
S11356500A034B00120B5B0DC90F0024AB4210DD93
S11356600F4CA3420FDC80240E4D64032243ED1A39
S11356701F2D0BDD0C48C31ADA405442002900D117
S11356801400200030BD094BCC18FAE7084CE84060
S1135690A44663449A400243EFE7C046FE03000079
S11356A01D0400003304000013040000FFFFFF7F0B
S11356B0EDFBFFFF70B5002830D0C317C4185C4061
S11356C0C50F200000F070F8174B184A1B1AD21AA5
S11356D01F2A18DD164AD21A9440002224035B05BF
S11356E0240B5B0D0021100024030A0D240B12056A
S11356F02243104C1B05224013435B00ED075B085B
S11357002B43190070BD210091400A000B21081A97
S1135710C4405B052403240B5B0DE3E70025002351
S113572000240022DEE7C0461E040000330400000B
S113573013040000FFFF0F8010B5041E28D000F0F2
S113574033F8154B154A1B1AD21A1F2A15DD144AB1
S1135750D21A9440002224035B05240B5B0D002124
S1135760100024030A0D240B120522430D4C1B05C3
S1135770224013435B00590810BD210091400A00E8
S11357800B21081AC4405B052403240B5B0DE6E7D8
S1135790002300240022E2E71E040000330400007A
S11357A013040000FFFF0F801C2101231B049842F7
S11357B001D3000C10391B0A984201D3000A08399E
S11357C01B09984201D30009043902A2105C401855
S11357D07047C046040302020101010100000000F9
S11357E0000000002E2E2F68616C2F7372632F68E7
S11357F0616C5F6164635F73796E632E63000000A4
S11358002E2E2F68616C2F7372632F68616C5F6931
S11358106F2E63002E2E2F68616C2F7372632F68B6
S1135820616C5F75736172745F73796E632E63006C
S11358300002020000000001000000000618010040
S11358400000000000000000000000002E2E2F6861
S1135850706C2F6164632F68706C5F6164632E6386
S113586000000000030000000400104000000300DA
S113587082E20000000000000000000000000000C0
S11358800000000000000000000000000000000014
S11358900000000000000000000000000000000004
S11358A000000000000000000000000000000000F4
S11358B0000000002E2E2F68706C2F736572636FCA
S11358C06D2F68706C5F736572636F6D2E6300007B
S11358D0504130362072617720202020203D202541
S11358E03033640D0A000000504130372072617774
S11358F020202020203D20253033640D0A000000A4
S11359005041303620766F6C74616765203D2025E8
S11359103033640D0A0000005041303720766F6C3C
S113592074616765203D20253033640D0A00000052
S1135930736E31633D25642C736E63323D25640DB3
S11359400A0000002D2D2D2D2D202D2D2D2D2D2D3A
S11359502D2D2D2D2D2D2D202D2D2D2D2D0D0000FA
S113596052656164696E67204661696C65642100F3
S113597004000020494E4600696E66004E414E0008
S11359806E616E0030003031323334353637383999
S1135990414243444546003031323334353637389A
S11359A03961626364656600496E66696E6974791B
S11359B0004E614E000000000000000000000000E6
S11359C000000000000000000000000000000000D3
S11359D000000000000000000000000000000000C3
S11359E000000000000000000000000000000000B3
S11359F000000000000000000000000000000000A3
S1135A000000000000000000000000000000000092
S1135A1000000000000000000080E03779C341432B
S1135A20176E05B5B5B89346F5F93FE9034F384D00
S1135A30321D30F94877825A3CBF737FDD4F1575AC
S1135A40000000000000F03F0000000000002440BF
S1135A5000000000000059400000000000408F409A
S1135A60000000000088C34000000000006AF84005
S1135A700000000080842E4100000000D012634129
S1135A800000000084D797410000000065CDCD419F
S1135A90000000205FA00242000000E87648374280
S1135AA0000000A2941A6D42000040E59C30A2421E
S1135AB00000901EC4BCD64200003426F56B0C4393
S1135AC00080E03779C3414300A0D885573476433A
S1135AD000C84E676DC1AB43003D9160E458E1439B
S1135AE0408CB5781DAF154450EFE2D6E41A4B4410
S1135AF092D54D06CFF08044F64AE1C7022DB54455
S1135B00B49DD9794378EA440500000019000000E7
S1135B107D000000232D302B2000686C4C0065664E
S1135B2067454647004300504F534958002E000034
S1135B302020202020202020202828282828202039
S1135B402020202020202020202020202020202051
S1135B5088101010101010101010101010101010C9
S1135B6004040404040404040404101010101010A9
S1135B701041414141414101010101010101010182
S1135B8001010101010101010101011010101010B6
S1135B901042424242424202020202020202020253
S1135BA0020202020202020202020210101010207B
S1135BB000000000000000000000000000000000E1
S1135BC000000000000000000000000000000000D1
S1135BD000000000000000000000000000000000C1
S1135BE000000000000000000000000000000000B1
S1135BF000000000000000000000000000000000A1
S1135C000000000000000000000000000000000090
S1135C100000000000000000000000000000000080
S1135C200000000000000000000000000000000070
S1135C3070440000524400000C4400002A43000059
S1135C400C440000444400000C4400002A430000BB
S1135C505244000052440000444400002A4300001F
S1135C602243000022430000224300008846000033
S1135C70D04C0000904B0000904B00008C4B000077
S1135C80A84C0000A84C00009A4C00008C4B00006B
S1135C90A84C00009A4C0000A84C00008C4B00005B
S1135CA0B04C0000B04C0000B04C0000B44E0000FA
S1135CB0F8B5C046F8BC08BC9E467047DD0000003D
S1135CC0F8B5C046F8BC08BC9E467047B500000055
S1135CD00400002000000000D8590000F85900001A
